{
  "contractName": "Battleship",
  "abi": [
    {
      "anonymous": false,
      "inputs": [
        {
          "indexed": true,
          "internalType": "uint256",
          "name": "gameId",
          "type": "uint256"
        },
        {
          "indexed": true,
          "internalType": "address",
          "name": "cheater",
          "type": "address"
        }
      ],
      "name": "CheatingDetected",
      "type": "event"
    },
    {
      "anonymous": false,
      "inputs": [
        {
          "indexed": true,
          "internalType": "uint256",
          "name": "gameId",
          "type": "uint256"
        },
        {
          "indexed": true,
          "internalType": "address",
          "name": "victim",
          "type": "address"
        },
        {
          "indexed": false,
          "internalType": "uint8",
          "name": "coordinate",
          "type": "uint8"
        }
      ],
      "name": "Fire",
      "type": "event"
    },
    {
      "anonymous": false,
      "inputs": [
        {
          "indexed": true,
          "internalType": "uint256",
          "name": "gameId",
          "type": "uint256"
        },
        {
          "indexed": false,
          "internalType": "address",
          "name": "player1",
          "type": "address"
        }
      ],
      "name": "GameCreated",
      "type": "event"
    },
    {
      "anonymous": false,
      "inputs": [
        {
          "indexed": true,
          "internalType": "uint256",
          "name": "gameId",
          "type": "uint256"
        },
        {
          "indexed": true,
          "internalType": "address",
          "name": "player",
          "type": "address"
        }
      ],
      "name": "Payed",
      "type": "event"
    },
    {
      "anonymous": false,
      "inputs": [
        {
          "indexed": true,
          "internalType": "uint256",
          "name": "gameId",
          "type": "uint256"
        },
        {
          "indexed": false,
          "internalType": "address",
          "name": "player2",
          "type": "address"
        }
      ],
      "name": "PlayerJoined",
      "type": "event"
    },
    {
      "anonymous": false,
      "inputs": [
        {
          "indexed": true,
          "internalType": "uint256",
          "name": "gameId",
          "type": "uint256"
        },
        {
          "indexed": false,
          "internalType": "address",
          "name": "player",
          "type": "address"
        }
      ],
      "name": "PlayerReady",
      "type": "event"
    },
    {
      "anonymous": false,
      "inputs": [
        {
          "indexed": true,
          "internalType": "uint256",
          "name": "gameId",
          "type": "uint256"
        },
        {
          "indexed": true,
          "internalType": "address",
          "name": "attacker",
          "type": "address"
        },
        {
          "indexed": true,
          "internalType": "uint8",
          "name": "coordinate",
          "type": "uint8"
        },
        {
          "indexed": false,
          "internalType": "bool",
          "name": "result",
          "type": "bool"
        }
      ],
      "name": "ShotResult",
      "type": "event"
    },
    {
      "anonymous": false,
      "inputs": [
        {
          "indexed": true,
          "internalType": "uint256",
          "name": "gameId",
          "type": "uint256"
        },
        {
          "indexed": true,
          "internalType": "address",
          "name": "player",
          "type": "address"
        }
      ],
      "name": "WaitingForBoardValidation",
      "type": "event"
    },
    {
      "anonymous": false,
      "inputs": [
        {
          "indexed": true,
          "internalType": "uint256",
          "name": "gameId",
          "type": "uint256"
        },
        {
          "indexed": true,
          "internalType": "address",
          "name": "winner",
          "type": "address"
        }
      ],
      "name": "Winner",
      "type": "event"
    },
    {
      "constant": true,
      "inputs": [
        {
          "internalType": "uint256",
          "name": "",
          "type": "uint256"
        }
      ],
      "name": "games",
      "outputs": [
        {
          "internalType": "address",
          "name": "player1",
          "type": "address"
        },
        {
          "internalType": "address",
          "name": "player2",
          "type": "address"
        },
        {
          "internalType": "enum Battleship.States",
          "name": "gameState",
          "type": "uint8"
        },
        {
          "internalType": "bool",
          "name": "is_private",
          "type": "bool"
        },
        {
          "internalType": "address",
          "name": "current_turn",
          "type": "address"
        },
        {
          "internalType": "uint8",
          "name": "winning_score",
          "type": "uint8"
        },
        {
          "internalType": "bool",
          "name": "waiting_result",
          "type": "bool"
        },
        {
          "internalType": "address payable",
          "name": "winner",
          "type": "address"
        },
        {
          "internalType": "uint256",
          "name": "balance",
          "type": "uint256"
        },
        {
          "internalType": "uint256",
          "name": "price",
          "type": "uint256"
        }
      ],
      "payable": false,
      "stateMutability": "view",
      "type": "function"
    },
    {
      "constant": true,
      "inputs": [],
      "name": "totalGames",
      "outputs": [
        {
          "internalType": "uint256",
          "name": "",
          "type": "uint256"
        }
      ],
      "payable": false,
      "stateMutability": "view",
      "type": "function"
    },
    {
      "constant": false,
      "inputs": [
        {
          "internalType": "uint256",
          "name": "price",
          "type": "uint256"
        }
      ],
      "name": "createPrivateGame",
      "outputs": [],
      "payable": false,
      "stateMutability": "nonpayable",
      "type": "function"
    },
    {
      "constant": false,
      "inputs": [
        {
          "internalType": "uint256",
          "name": "gameId",
          "type": "uint256"
        }
      ],
      "name": "joinGame",
      "outputs": [
        {
          "internalType": "uint256",
          "name": "",
          "type": "uint256"
        }
      ],
      "payable": false,
      "stateMutability": "nonpayable",
      "type": "function"
    },
    {
      "constant": false,
      "inputs": [
        {
          "internalType": "uint256",
          "name": "gameId",
          "type": "uint256"
        }
      ],
      "name": "pay",
      "outputs": [],
      "payable": true,
      "stateMutability": "payable",
      "type": "function"
    },
    {
      "constant": false,
      "inputs": [
        {
          "internalType": "uint256",
          "name": "price",
          "type": "uint256"
        }
      ],
      "name": "joinRandomGame",
      "outputs": [],
      "payable": false,
      "stateMutability": "nonpayable",
      "type": "function"
    },
    {
      "constant": false,
      "inputs": [
        {
          "internalType": "uint256",
          "name": "gameId",
          "type": "uint256"
        },
        {
          "internalType": "bytes32",
          "name": "root",
          "type": "bytes32"
        }
      ],
      "name": "commitBoard",
      "outputs": [],
      "payable": false,
      "stateMutability": "nonpayable",
      "type": "function"
    },
    {
      "constant": true,
      "inputs": [
        {
          "internalType": "uint256",
          "name": "gameId",
          "type": "uint256"
        }
      ],
      "name": "currentTurn",
      "outputs": [
        {
          "internalType": "address",
          "name": "",
          "type": "address"
        }
      ],
      "payable": false,
      "stateMutability": "view",
      "type": "function"
    },
    {
      "constant": true,
      "inputs": [
        {
          "internalType": "uint256",
          "name": "gameId",
          "type": "uint256"
        }
      ],
      "name": "gameState",
      "outputs": [
        {
          "internalType": "uint8",
          "name": "",
          "type": "uint8"
        }
      ],
      "payable": false,
      "stateMutability": "view",
      "type": "function"
    },
    {
      "constant": false,
      "inputs": [
        {
          "internalType": "uint256",
          "name": "gameId",
          "type": "uint256"
        },
        {
          "internalType": "uint8",
          "name": "coordinate",
          "type": "uint8"
        }
      ],
      "name": "fire",
      "outputs": [],
      "payable": false,
      "stateMutability": "nonpayable",
      "type": "function"
    },
    {
      "constant": false,
      "inputs": [
        {
          "internalType": "uint256",
          "name": "gameId",
          "type": "uint256"
        },
        {
          "internalType": "uint8",
          "name": "coordinate",
          "type": "uint8"
        },
        {
          "internalType": "bool",
          "name": "result",
          "type": "bool"
        },
        {
          "internalType": "uint32",
          "name": "salt",
          "type": "uint32"
        },
        {
          "internalType": "bytes32[]",
          "name": "proof",
          "type": "bytes32[]"
        }
      ],
      "name": "shotResult",
      "outputs": [],
      "payable": false,
      "stateMutability": "nonpayable",
      "type": "function"
    },
    {
      "constant": false,
      "inputs": [
        {
          "internalType": "uint256",
          "name": "gameId",
          "type": "uint256"
        },
        {
          "internalType": "bool[]",
          "name": "result",
          "type": "bool[]"
        },
        {
          "internalType": "uint32[]",
          "name": "salt",
          "type": "uint32[]"
        },
        {
          "internalType": "bytes32[][]",
          "name": "proof",
          "type": "bytes32[][]"
        }
      ],
      "name": "checkBoardValidity",
      "outputs": [],
      "payable": false,
      "stateMutability": "nonpayable",
      "type": "function"
    }
  ],
  "bytecode": "0x608060405234801561001057600080fd5b506136fd806100206000396000f3fe6080604052600436106100a75760003560e01c806395c263eb1161006457806395c263eb146101e9578063aac033b914610212578063aae38ea81461023b578063c290d69114610264578063e6b9c47c14610280578063efaa55a0146102a9576100a7565b8063117a5b90146100ac57806318bc9ed6146100f2578063224925751461012f5780632c4e591b146101585780634e0e1a3e14610183578063714eb9f7146101c0575b600080fd5b3480156100b857600080fd5b506100d360048036036100ce91908101906128a1565b6102e6565b6040516100e99a99989796959493929190613120565b60405180910390f35b3480156100fe57600080fd5b50610119600480360361011491908101906128a1565b6103ee565b60405161012691906130ea565b60405180910390f35b34801561013b57600080fd5b50610156600480360361015191908101906128a1565b610471565b005b34801561016457600080fd5b5061016d61047f565b60405161017a9190613440565b60405180910390f35b34801561018f57600080fd5b506101aa60048036036101a591908101906128a1565b610485565b6040516101b7919061345b565b60405180910390f35b3480156101cc57600080fd5b506101e760048036036101e291908101906128ca565b610691565b005b3480156101f557600080fd5b50610210600480360361020b91908101906128a1565b610aff565b005b34801561021e57600080fd5b5061023960048036036102349190810190612975565b610cd5565b005b34801561024757600080fd5b50610262600480360361025d91908101906129b1565b611107565b005b61027e600480360361027991908101906128a1565b6115de565b005b34801561028c57600080fd5b506102a760048036036102a291908101906129ed565b611860565b005b3480156102b557600080fd5b506102d060048036036102cb91908101906128a1565b611f4f565b6040516102dd9190613440565b60405180910390f35b60006020528060005260406000206000915090508060000160009054906101000a900473ffffffffffffffffffffffffffffffffffffffff16908060010160009054906101000a900473ffffffffffffffffffffffffffffffffffffffff16908060010160149054906101000a900460ff16908060010160159054906101000a900460ff16908060030160009054906101000a900473ffffffffffffffffffffffffffffffffffffffff16908060050160009054906101000a900460ff16908060070160009054906101000a900460ff16908060070160019054906101000a900473ffffffffffffffffffffffffffffffffffffffff1690806008015490806009015490508a565b60006001548210610434576040517f08c379a000000000000000000000000000000000000000000000000000000000815260040161042b906132c0565b60405180910390fd5b60008083815260200190815260200160002060030160009054906101000a900473ffffffffffffffffffffffffffffffffffffffff169050919050565b61047c600182612157565b50565b60015481565b600060015482106104cb576040517f08c379a00000000000000000000000000000000000000000000000000000000081526004016104c2906132c0565b60405180910390fd5b600060068111156104d857fe5b60008084815260200190815260200160002060010160149054906101000a900460ff16600681111561050657fe5b1415610515576000905061068c565b6001600681111561052257fe5b60008084815260200190815260200160002060010160149054906101000a900460ff16600681111561055057fe5b141561055f576001905061068c565b6002600681111561056c57fe5b60008084815260200190815260200160002060010160149054906101000a900460ff16600681111561059a57fe5b14156105a9576002905061068c565b600360068111156105b657fe5b60008084815260200190815260200160002060010160149054906101000a900460ff1660068111156105e457fe5b14156105f3576003905061068c565b6004600681111561060057fe5b60008084815260200190815260200160002060010160149054906101000a900460ff16600681111561062e57fe5b141561063d576004905061068c565b6005600681111561064a57fe5b60008084815260200190815260200160002060010160149054906101000a900460ff16600681111561067857fe5b1415610687576005905061068c565b600690505b919050565b60015484106106d5576040517f08c379a00000000000000000000000000000000000000000000000000000000081526004016106cc906132c0565b60405180910390fd5b600080600086815260200190815260200160002090503373ffffffffffffffffffffffffffffffffffffffff168160070160019054906101000a900473ffffffffffffffffffffffffffffffffffffffff1673ffffffffffffffffffffffffffffffffffffffff161461077d576040517f08c379a000000000000000000000000000000000000000000000000000000000815260040161077490613320565b60405180910390fd5b6005600681111561078a57fe5b8160010160149054906101000a900460ff1660068111156107a757fe5b146107e7576040517f08c379a00000000000000000000000000000000000000000000000000000000081526004016107de90613360565b60405180910390fd5b600080905060008260020160003373ffffffffffffffffffffffffffffffffffffffff1673ffffffffffffffffffffffffffffffffffffffff16815260200190815260200160002054905060008090505b86518110156109cc576108868288838151811061085157fe5b602002602001015188848151811061086557fe5b602002602001015188858151811061087957fe5b60200260200101516122af565b156108bc576001151587828151811061089b57fe5b60200260200101511515146108b057826108b5565b600183015b92506109bf565b3373ffffffffffffffffffffffffffffffffffffffff16887f153b0f7771c671c1687a3dec3ae2d4fea7d83e189ac5562124ec923f559efe4760405160405180910390a360008460000160009054906101000a900473ffffffffffffffffffffffffffffffffffffffff1673ffffffffffffffffffffffffffffffffffffffff163373ffffffffffffffffffffffffffffffffffffffff1614610983578460000160009054906101000a900473ffffffffffffffffffffffffffffffffffffffff166109a9565b8460010160009054906101000a900473ffffffffffffffffffffffffffffffffffffffff165b90506109b58982612384565b5050505050610af9565b8080600101915050610838565b508260050160009054906101000a900460ff1660ff168260ff1614610aea573373ffffffffffffffffffffffffffffffffffffffff16877f153b0f7771c671c1687a3dec3ae2d4fea7d83e189ac5562124ec923f559efe4760405160405180910390a360008360000160009054906101000a900473ffffffffffffffffffffffffffffffffffffffff1673ffffffffffffffffffffffffffffffffffffffff163373ffffffffffffffffffffffffffffffffffffffff1614610ab2578360000160009054906101000a900473ffffffffffffffffffffffffffffffffffffffff16610ad8565b8360010160009054906101000a900473ffffffffffffffffffffffffffffffffffffffff165b9050610ae48882612384565b50610af5565b610af48733612384565b5b5050505b50505050565b6000809050600080905060008090505b600154811015610c005760008060008381526020019081526020016000209050600073ffffffffffffffffffffffffffffffffffffffff168160010160009054906101000a900473ffffffffffffffffffffffffffffffffffffffff1673ffffffffffffffffffffffffffffffffffffffff16148015610bb6575060006006811115610b9757fe5b8160010160149054906101000a900460ff166006811115610bb457fe5b145b8015610bd157508060010160159054906101000a900460ff16155b8015610be05750848160090154145b15610bf2576001925081935050610c00565b508080600101915050610b0f565b508015610cc45760008060008481526020019081526020016000209050338160010160006101000a81548173ffffffffffffffffffffffffffffffffffffffff021916908373ffffffffffffffffffffffffffffffffffffffff16021790555060018160010160146101000a81548160ff02191690836006811115610c8157fe5b0217905550827f87969bc7faf902221a147b95ceba76e011c5efb0339a0a8ee7a2bb82d9cfbbd633604051610cb69190613105565b60405180910390a250610cd0565b610ccf600084612157565b5b505050565b6001548210610d19576040517f08c379a0000000000000000000000000000000000000000000000000000000008152600401610d10906132c0565b60405180910390fd5b60008060008481526020019081526020016000209050600073ffffffffffffffffffffffffffffffffffffffff168160000160009054906101000a900473ffffffffffffffffffffffffffffffffffffffff1673ffffffffffffffffffffffffffffffffffffffff161415610dc3576040517f08c379a0000000000000000000000000000000000000000000000000000000008152600401610dba90613380565b60405180910390fd5b60036006811115610dd057fe5b8160010160149054906101000a900460ff166006811115610ded57fe5b1480610e20575060026006811115610e0157fe5b8160010160149054906101000a900460ff166006811115610e1e57fe5b145b610e5f576040517f08c379a0000000000000000000000000000000000000000000000000000000008152600401610e5690613400565b60405180910390fd5b3373ffffffffffffffffffffffffffffffffffffffff168160000160009054906101000a900473ffffffffffffffffffffffffffffffffffffffff1673ffffffffffffffffffffffffffffffffffffffff161480610f0c57503373ffffffffffffffffffffffffffffffffffffffff168160010160009054906101000a900473ffffffffffffffffffffffffffffffffffffffff1673ffffffffffffffffffffffffffffffffffffffff16145b610f4b576040517f08c379a0000000000000000000000000000000000000000000000000000000008152600401610f4290613240565b60405180910390fd5b6000801b8160020160003373ffffffffffffffffffffffffffffffffffffffff1673ffffffffffffffffffffffffffffffffffffffff1681526020019081526020016000205414610fd1576040517f08c379a0000000000000000000000000000000000000000000000000000000008152600401610fc890613300565b60405180910390fd5b818160020160003373ffffffffffffffffffffffffffffffffffffffff1673ffffffffffffffffffffffffffffffffffffffff168152602001908152602001600020819055506002600681111561102457fe5b8160010160149054906101000a900460ff16600681111561104157fe5b14156110725760038160010160146101000a81548160ff0219169083600681111561106857fe5b02179055506110ca565b6003600681111561107f57fe5b8160010160149054906101000a900460ff16600681111561109c57fe5b14156110c95760048160010160146101000a81548160ff021916908360068111156110c357fe5b02179055505b5b827f6ca87004dea1dbeec045b0dc2f98a5c0375f003f7948b77a694ebd6f22682a80336040516110fa9190613105565b60405180910390a2505050565b600154821061114b576040517f08c379a0000000000000000000000000000000000000000000000000000000008152600401611142906132c0565b60405180910390fd5b600080600084815260200190815260200160002090503373ffffffffffffffffffffffffffffffffffffffff168160000160009054906101000a900473ffffffffffffffffffffffffffffffffffffffff1673ffffffffffffffffffffffffffffffffffffffff16148061120e57503373ffffffffffffffffffffffffffffffffffffffff168160010160009054906101000a900473ffffffffffffffffffffffffffffffffffffffff1673ffffffffffffffffffffffffffffffffffffffff16145b61124d576040517f08c379a000000000000000000000000000000000000000000000000000000000815260040161124490613240565b60405180910390fd5b6004600681111561125a57fe5b8160010160149054906101000a900460ff16600681111561127757fe5b146112b7576040517f08c379a00000000000000000000000000000000000000000000000000000000081526004016112ae90613200565b60405180910390fd5b3373ffffffffffffffffffffffffffffffffffffffff168160030160009054906101000a900473ffffffffffffffffffffffffffffffffffffffff1673ffffffffffffffffffffffffffffffffffffffff1614611349576040517f08c379a000000000000000000000000000000000000000000000000000000000815260040161134090613220565b60405180910390fd5b60008260ff1610158015611360575060648260ff16105b61139f576040517f08c379a0000000000000000000000000000000000000000000000000000000008152600401611396906133c0565b60405180910390fd5b8060070160009054906101000a900460ff16156113f1576040517f08c379a00000000000000000000000000000000000000000000000000000000081526004016113e8906133e0565b60405180910390fd5b8060060160003373ffffffffffffffffffffffffffffffffffffffff1673ffffffffffffffffffffffffffffffffffffffff16815260200190815260200160002060008360ff1660ff16815260200190815260200160002060000160019054906101000a900460ff161561149a576040517f08c379a000000000000000000000000000000000000000000000000000000000815260040161149190613260565b60405180910390fd5b60018160070160006101000a81548160ff02191690831515021790555060008160000160009054906101000a900473ffffffffffffffffffffffffffffffffffffffff1673ffffffffffffffffffffffffffffffffffffffff168260030160009054906101000a900473ffffffffffffffffffffffffffffffffffffffff1673ffffffffffffffffffffffffffffffffffffffff161415611561578160010160009054906101000a900473ffffffffffffffffffffffffffffffffffffffff169050611589565b8160000160009054906101000a900473ffffffffffffffffffffffffffffffffffffffff1690505b8073ffffffffffffffffffffffffffffffffffffffff16847fae19dfa7e871b72e1c5e5a67d39988b7d0b642d25ef898f980d245ee2db2decc856040516115d0919061345b565b60405180910390a350505050565b6001548110611622576040517f08c379a0000000000000000000000000000000000000000000000000000000008152600401611619906132c0565b60405180910390fd5b600080600083815260200190815260200160002090506001600681111561164557fe5b8160010160149054906101000a900460ff16600681111561166257fe5b146116a2576040517f08c379a000000000000000000000000000000000000000000000000000000000815260040161169990613280565b60405180910390fd5b348160090154146116e8576040517f08c379a00000000000000000000000000000000000000000000000000000000081526004016116df906133a0565b60405180910390fd5b3373ffffffffffffffffffffffffffffffffffffffff168160000160009054906101000a900473ffffffffffffffffffffffffffffffffffffffff1673ffffffffffffffffffffffffffffffffffffffff16148061179557503373ffffffffffffffffffffffffffffffffffffffff168160010160009054906101000a900473ffffffffffffffffffffffffffffffffffffffff1673ffffffffffffffffffffffffffffffffffffffff16145b6117d4576040517f08c379a00000000000000000000000000000000000000000000000000000000081526004016117cb90613240565b60405180910390fd5b348160080160008282540192505081905550348160080154146118185760028160010160146101000a81548160ff0219169083600681111561181257fe5b02179055505b3373ffffffffffffffffffffffffffffffffffffffff16827f428c3067a9718a089b4505e91c5cba59df7cf5cd6c45b77d879142ca748f7fd360405160405180910390a35050565b60015486106118a4576040517f08c379a000000000000000000000000000000000000000000000000000000000815260040161189b906132c0565b60405180910390fd5b600080600088815260200190815260200160002090503373ffffffffffffffffffffffffffffffffffffffff168160030160009054906101000a900473ffffffffffffffffffffffffffffffffffffffff1673ffffffffffffffffffffffffffffffffffffffff16141561194d576040517f08c379a000000000000000000000000000000000000000000000000000000000815260040161194490613340565b60405180910390fd5b6004600681111561195a57fe5b8160010160149054906101000a900460ff16600681111561197757fe5b146119b7576040517f08c379a00000000000000000000000000000000000000000000000000000000081526004016119ae90613420565b60405180910390fd5b60008660ff16101580156119ce575060648660ff16105b611a0d576040517f08c379a0000000000000000000000000000000000000000000000000000000008152600401611a04906133c0565b60405180910390fd5b3373ffffffffffffffffffffffffffffffffffffffff168160000160009054906101000a900473ffffffffffffffffffffffffffffffffffffffff1673ffffffffffffffffffffffffffffffffffffffff161480611aba57503373ffffffffffffffffffffffffffffffffffffffff168160010160009054906101000a900473ffffffffffffffffffffffffffffffffffffffff1673ffffffffffffffffffffffffffffffffffffffff16145b611af9576040517f08c379a0000000000000000000000000000000000000000000000000000000008152600401611af090613240565b60405180910390fd5b8060070160009054906101000a900460ff16611b4a576040517f08c379a0000000000000000000000000000000000000000000000000000000008152600401611b41906132a0565b60405180910390fd5b60008160030160009054906101000a900473ffffffffffffffffffffffffffffffffffffffff1690508160060160008273ffffffffffffffffffffffffffffffffffffffff1673ffffffffffffffffffffffffffffffffffffffff16815260200190815260200160002060008860ff1660ff16815260200190815260200160002060000160019054906101000a900460ff1615611c1c576040517f08c379a0000000000000000000000000000000000000000000000000000000008152600401611c13906132e0565b60405180910390fd5b611caa8260020160003373ffffffffffffffffffffffffffffffffffffffff1673ffffffffffffffffffffffffffffffffffffffff168152602001908152602001600020548787878780806020026020016040519081016040528093929190818152602001838360200280828437600081840152601f19601f820116905080830192505050505050506122af565b15611eb357858260060160008373ffffffffffffffffffffffffffffffffffffffff1673ffffffffffffffffffffffffffffffffffffffff16815260200190815260200160002060008960ff1660ff16815260200190815260200160002060000160006101000a81548160ff02191690831515021790555060018260060160008373ffffffffffffffffffffffffffffffffffffffff1673ffffffffffffffffffffffffffffffffffffffff16815260200190815260200160002060008960ff1660ff16815260200190815260200160002060000160016101000a81548160ff0219169083151502179055508515611e0e578160040160008273ffffffffffffffffffffffffffffffffffffffff1673ffffffffffffffffffffffffffffffffffffffff168152602001908152602001600020600081819054906101000a900460ff168092919060010191906101000a81548160ff021916908360ff160217905550505b338260030160006101000a81548173ffffffffffffffffffffffffffffffffffffffff021916908373ffffffffffffffffffffffffffffffffffffffff1602179055508660ff168173ffffffffffffffffffffffffffffffffffffffff16897f643d22060fdd6452e9d00cb46911d684f5f21a0792184e2980107b70f44e50c989604051611e9c91906131bc565b60405180910390a4611eae88826124bb565b611f28565b3373ffffffffffffffffffffffffffffffffffffffff16887f153b0f7771c671c1687a3dec3ae2d4fea7d83e189ac5562124ec923f559efe4760405160405180910390a360058260010160146101000a81548160ff02191690836006811115611f1857fe5b0217905550611f278882612384565b5b60008260070160006101000a81548160ff0219169083151502179055505050505050505050565b60006001548210611f95576040517f08c379a0000000000000000000000000000000000000000000000000000000008152600401611f8c906132c0565b60405180910390fd5b60008060008481526020019081526020016000209050600073ffffffffffffffffffffffffffffffffffffffff168160000160009054906101000a900473ffffffffffffffffffffffffffffffffffffffff1673ffffffffffffffffffffffffffffffffffffffff16141561203f576040517f08c379a000000000000000000000000000000000000000000000000000000000815260040161203690613380565b60405180910390fd5b6000600681111561204c57fe5b8160010160149054906101000a900460ff16600681111561206957fe5b146120a9576040517f08c379a00000000000000000000000000000000000000000000000000000000081526004016120a090613400565b60405180910390fd5b338160010160006101000a81548173ffffffffffffffffffffffffffffffffffffffff021916908373ffffffffffffffffffffffffffffffffffffffff16021790555060018160010160146101000a81548160ff0219169083600681111561210d57fe5b0217905550827f87969bc7faf902221a147b95ceba76e011c5efb0339a0a8ee7a2bb82d9cfbbd6336040516121429190613105565b60405180910390a28060090154915050919050565b60006001600081548092919060010191905055905060008060008381526020019081526020016000209050338160000160006101000a81548173ffffffffffffffffffffffffffffffffffffffff021916908373ffffffffffffffffffffffffffffffffffffffff16021790555060008160010160146101000a81548160ff021916908360068111156121e657fe5b0217905550838160010160156101000a81548160ff021916908315150217905550338160030160006101000a81548173ffffffffffffffffffffffffffffffffffffffff021916908373ffffffffffffffffffffffffffffffffffffffff16021790555060118160050160006101000a81548160ff021916908360ff160217905550828160090181905550817fc3e0f84839dc888c892a013d10c8f9d6dc05a21a879d0ce468ca558013e9121c336040516122a19190613105565b60405180910390a250505050565b60008084846040516020016122c59291906131d7565b60405160208183030381529060405280519060200120905060008090505b83518110156123755760008482815181106122fa57fe5b6020026020010151905080831161233b57828160405160200161231e9291906130be565b604051602081830303815290604052805190602001209250612367565b808360405160200161234e9291906130be565b6040516020818303038152906040528051906020012092505b5080806001019150506122e3565b50858114915050949350505050565b600080600084815260200190815260200160002090508173ffffffffffffffffffffffffffffffffffffffff16837f6b5936f5be80114e7a91daf84ba4886ece975aaffac48c9609cfa022d74a8a7d60405160405180910390a3818160070160016101000a81548173ffffffffffffffffffffffffffffffffffffffff021916908373ffffffffffffffffffffffffffffffffffffffff16021790555060068160010160146101000a81548160ff0219169083600681111561244257fe5b02179055508060070160019054906101000a900473ffffffffffffffffffffffffffffffffffffffff1673ffffffffffffffffffffffffffffffffffffffff166108fc82600801549081150290604051600060405180830381858888f193505050501580156124b5573d6000803e3d6000fd5b50505050565b600080600084815260200190815260200160002090508060050160009054906101000a900460ff1660ff168160040160008473ffffffffffffffffffffffffffffffffffffffff1673ffffffffffffffffffffffffffffffffffffffff16815260200190815260200160002060009054906101000a900460ff1660ff1614156125ec57818160070160016101000a81548173ffffffffffffffffffffffffffffffffffffffff021916908373ffffffffffffffffffffffffffffffffffffffff1602179055508173ffffffffffffffffffffffffffffffffffffffff16837f118ed56153ea4efd5b70a58c843210713faba6fa9af88c6d9fb6d4adce1ccb0360405160405180910390a360058160010160146101000a81548160ff021916908360068111156125e657fe5b02179055505b505050565b600082601f83011261260257600080fd5b8135612615612610826134a3565b613476565b9150818183526020840193506020810190508360005b8381101561265b57813586016126418882612732565b84526020840193506020830192505060018101905061262b565b5050505092915050565b600082601f83011261267657600080fd5b8135612689612684826134cb565b613476565b915081818352602084019350602081019050838560208402820111156126ae57600080fd5b60005b838110156126de57816126c48882612838565b8452602084019350602083019250506001810190506126b1565b5050505092915050565b60008083601f8401126126fa57600080fd5b8235905067ffffffffffffffff81111561271357600080fd5b60208301915083602082028301111561272b57600080fd5b9250929050565b600082601f83011261274357600080fd5b8135612756612751826134f3565b613476565b9150818183526020840193506020810190508385602084028201111561277b57600080fd5b60005b838110156127ab5781612791888261284d565b84526020840193506020830192505060018101905061277e565b5050505092915050565b600082601f8301126127c657600080fd5b81356127d96127d48261351b565b613476565b915081818352602084019350602081019050838560208402820111156127fe57600080fd5b60005b8381101561282e57816128148882612877565b845260208401935060208301925050600181019050612801565b5050505092915050565b60008135905061284781613647565b92915050565b60008135905061285c8161365e565b92915050565b60008135905061287181613675565b92915050565b6000813590506128868161368c565b92915050565b60008135905061289b816136a3565b92915050565b6000602082840312156128b357600080fd5b60006128c184828501612862565b91505092915050565b600080600080608085870312156128e057600080fd5b60006128ee87828801612862565b945050602085013567ffffffffffffffff81111561290b57600080fd5b61291787828801612665565b935050604085013567ffffffffffffffff81111561293457600080fd5b612940878288016127b5565b925050606085013567ffffffffffffffff81111561295d57600080fd5b612969878288016125f1565b91505092959194509250565b6000806040838503121561298857600080fd5b600061299685828601612862565b92505060206129a78582860161284d565b9150509250929050565b600080604083850312156129c457600080fd5b60006129d285828601612862565b92505060206129e38582860161288c565b9150509250929050565b60008060008060008060a08789031215612a0657600080fd5b6000612a1489828a01612862565b9650506020612a2589828a0161288c565b9550506040612a3689828a01612838565b9450506060612a4789828a01612877565b935050608087013567ffffffffffffffff811115612a6457600080fd5b612a7089828a016126e8565b92509250509295509295509295565b612a88816135e8565b82525050565b612a9781613566565b82525050565b612aa681613554565b82525050565b612ab581613578565b82525050565b612acc612ac782613584565b613630565b82525050565b612adb816135fa565b82525050565b6000612aee601283613543565b91507f466972696e67206e6f7420616c6c6f77656400000000000000000000000000006000830152602082019050919050565b6000612b2e601f83613543565b91507f506c61796572206d757374207761697420666f72207468656972207475726e006000830152602082019050919050565b6000612b6e602883613543565b91507f506c6179657220646f6573206e6f7420706172746963697061746520746f207460008301527f6869732067616d650000000000000000000000000000000000000000000000006020830152604082019050919050565b6000612bd4602783613543565b91507f506c6179657220616c726561647920666972656420746f207468697320636f6f60008301527f7264696e617465000000000000000000000000000000000000000000000000006020830152604082019050919050565b6000612c3a600d83613543565b91507f47616d65206e6f742066756c6c000000000000000000000000000000000000006000830152602082019050919050565b6000612c7a601e83613543565b91507f43757272656e746c79206e6f742077616974696e67206120726573756c7400006000830152602082019050919050565b6000612cba600f83613543565b91507f496e76616c69642067616d6520494400000000000000000000000000000000006000830152602082019050919050565b6000612cfa602a83613543565b91507f50726f6f6620666f72207468697320636f6f7264696e61746520616c7265616460008301527f792070726f7669646564000000000000000000000000000000000000000000006020830152604082019050919050565b6000612d60603183613543565b91507f506c6179657220616c726561647920636f6d6d6974656420746865697220626f60008301527f61726420666f7220746869732067616d650000000000000000000000000000006020830152604082019050919050565b6000612dc6602583613543565b91507f506c61796572206973206e6f74207468652077696e6e6572206f66207468652060008301527f6d617463680000000000000000000000000000000000000000000000000000006020830152604082019050919050565b6000612e2c600f83613543565b91507f4e6f7420706c61796572207475726e00000000000000000000000000000000006000830152602082019050919050565b6000612e6c602883613543565b91507f426f6172642076616c6964697479206e6f7420636865636b656420696e20746860008301527f69732070686173650000000000000000000000000000000000000000000000006020830152604082019050919050565b6000612ed2601383613543565b91507f47616d6520646f6573206e6f74206578697374000000000000000000000000006000830152602082019050919050565b6000612f12601783613543565b91507f506c6561736520706179207468652066756c6c206665650000000000000000006000830152602082019050919050565b6000612f52601283613543565b91507f496e76616c696420636f6f7264696e61746500000000000000000000000000006000830152602082019050919050565b6000612f92602883613543565b91507f57616974696e6720666f722074686520726573756c74206f662070726576696f60008301527f75732073686f74730000000000000000000000000000000000000000000000006020830152604082019050919050565b6000612ff8601483613543565b91507f47616d6520616c726561647920737461727465640000000000000000000000006000830152602082019050919050565b6000613038602883613543565b91507f4f7065726174696f6e206e6f7420616c6c6f77656420696e207468697320676160008301527f6d652073746174650000000000000000000000000000000000000000000000006020830152604082019050919050565b61309a816135c1565b82525050565b6130a9816135cb565b82525050565b6130b8816135db565b82525050565b60006130ca8285612abb565b6020820191506130da8284612abb565b6020820191508190509392505050565b60006020820190506130ff6000830184612a9d565b92915050565b600060208201905061311a6000830184612a7f565b92915050565b600061014082019050613136600083018d612a9d565b613143602083018c612a9d565b613150604083018b612ad2565b61315d606083018a612aac565b61316a6080830189612a9d565b61317760a08301886130af565b61318460c0830187612aac565b61319160e0830186612a8e565b61319f610100830185613091565b6131ad610120830184613091565b9b9a5050505050505050505050565b60006020820190506131d16000830184612aac565b92915050565b60006040820190506131ec6000830185612aac565b6131f960208301846130a0565b9392505050565b6000602082019050818103600083015261321981612ae1565b9050919050565b6000602082019050818103600083015261323981612b21565b9050919050565b6000602082019050818103600083015261325981612b61565b9050919050565b6000602082019050818103600083015261327981612bc7565b9050919050565b6000602082019050818103600083015261329981612c2d565b9050919050565b600060208201905081810360008301526132b981612c6d565b9050919050565b600060208201905081810360008301526132d981612cad565b9050919050565b600060208201905081810360008301526132f981612ced565b9050919050565b6000602082019050818103600083015261331981612d53565b9050919050565b6000602082019050818103600083015261333981612db9565b9050919050565b6000602082019050818103600083015261335981612e1f565b9050919050565b6000602082019050818103600083015261337981612e5f565b9050919050565b6000602082019050818103600083015261339981612ec5565b9050919050565b600060208201905081810360008301526133b981612f05565b9050919050565b600060208201905081810360008301526133d981612f45565b9050919050565b600060208201905081810360008301526133f981612f85565b9050919050565b6000602082019050818103600083015261341981612feb565b9050919050565b600060208201905081810360008301526134398161302b565b9050919050565b60006020820190506134556000830184613091565b92915050565b600060208201905061347060008301846130af565b92915050565b6000604051905081810181811067ffffffffffffffff8211171561349957600080fd5b8060405250919050565b600067ffffffffffffffff8211156134ba57600080fd5b602082029050602081019050919050565b600067ffffffffffffffff8211156134e257600080fd5b602082029050602081019050919050565b600067ffffffffffffffff82111561350a57600080fd5b602082029050602081019050919050565b600067ffffffffffffffff82111561353257600080fd5b602082029050602081019050919050565b600082825260208201905092915050565b600061355f826135a1565b9050919050565b6000613571826135a1565b9050919050565b60008115159050919050565b6000819050919050565b600081905061359c8261363a565b919050565b600073ffffffffffffffffffffffffffffffffffffffff82169050919050565b6000819050919050565b600063ffffffff82169050919050565b600060ff82169050919050565b60006135f38261360c565b9050919050565b60006136058261358e565b9050919050565b60006136178261361e565b9050919050565b6000613629826135a1565b9050919050565b6000819050919050565b6007811061364457fe5b50565b61365081613578565b811461365b57600080fd5b50565b61366781613584565b811461367257600080fd5b50565b61367e816135c1565b811461368957600080fd5b50565b613695816135cb565b81146136a057600080fd5b50565b6136ac816135db565b81146136b757600080fd5b5056fea365627a7a7231582067b6265374356a018163876d57a4e949ebe9d5fd473d206dc9a3c7ffdd885dca6c6578706572696d656e74616cf564736f6c63430005100040",
  "source": "// SPDX-License-Identifier: MIT \r\npragma solidity >=0.5.0 <0.9.0;\r\npragma experimental ABIEncoderV2;\r\n\r\ncontract Battleship {\r\n  enum States{\r\n    Waiting,\r\n    Connected,\r\n    Payed,\r\n    Ready,\r\n    Play,\r\n    Over,\r\n    Rewarded\r\n  }\r\n  \r\n  struct Shot{\r\n    bool result;\r\n    bool verified;\r\n  }\r\n\r\n  struct Game {\r\n    address player1;\r\n    address player2;\r\n    States gameState;\r\n    bool is_private;\r\n    mapping(address => bytes32) merkleRoots;\r\n    address current_turn;\r\n    mapping(address => uint8) scores;\r\n    uint8 winning_score;\r\n    mapping(address => mapping(uint8 => Shot)) shots;\r\n    bool waiting_result;\r\n    address payable winner;\r\n    uint256 balance;\r\n    uint256 price;\r\n  }\r\n\r\n  mapping(uint256 => Game) public games;\r\n  uint256 public totalGames;\r\n\r\n  event GameCreated(uint256 indexed gameId, address player1);\r\n  event PlayerJoined(uint256 indexed gameId, address player2);\r\n  event PlayerReady(uint256 indexed gameId, address player);\r\n  event Fire(uint256 indexed gameId, address indexed  victim, uint8 coordinate);\r\n  event ShotResult(uint256 indexed gameId, address indexed attacker, uint8 indexed coordinate, bool result);\r\n  event CheatingDetected(uint256 indexed gameId, address indexed cheater);\r\n  event WaitingForBoardValidation( uint256 indexed gameId, address indexed player);\r\n  event Winner(uint256 indexed gameId, address indexed winner);\r\n  event Payed(uint256 indexed gameId, address indexed player);\r\n\r\n  function createGame(bool priv, uint256 price) private{\r\n    uint256 gameId = totalGames++;\r\n    Game storage newGame = games[gameId];\r\n    newGame.player1 = msg.sender;\r\n    newGame.gameState = States.Waiting;\r\n    newGame.is_private = priv;\r\n    newGame.current_turn = msg.sender;\r\n    newGame.winning_score = 17;\r\n    newGame.price = price;\r\n    emit GameCreated(gameId, msg.sender);\r\n  }\r\n\r\n  function createPrivateGame(uint256 price) external{\r\n    createGame(true,price);\r\n  }\r\n\r\n  function joinGame(uint256 gameId) external returns(uint256) {\r\n    require(gameId < totalGames, \"Invalid game ID\");\r\n    Game storage existingGame = games[gameId];\r\n\r\n    require(existingGame.player1 != address(0), \"Game does not exist\");\r\n    require(existingGame.gameState == States.Waiting,\"Game already started\");\r\n\r\n    existingGame.player2 = msg.sender;\r\n    existingGame.gameState = States.Connected;\r\n    emit PlayerJoined(gameId, msg.sender);\r\n    return existingGame.price;\r\n  }\r\n\r\n  function pay(uint256 gameId) public payable{\r\n\r\n    require(gameId < totalGames, \"Invalid game ID\");\r\n    Game storage game = games[gameId];\r\n    require(game.gameState == States.Connected, \"Game not full\");\r\n    require(game.price == msg.value, \"Please pay the full fee\");\r\n    require(game.player1 == msg.sender || game.player2 == msg.sender, \"Player does not participate to this game\");\r\n    game.balance += msg.value;\r\n    if(game.balance != msg.value)\r\n      game.gameState = States.Payed;\r\n    emit Payed(gameId, msg.sender);\r\n  }\r\n\r\n  function joinRandomGame(uint256 price) external{\r\n    uint256 gameId = 0;\r\n    bool gameFound = false;\r\n\r\n    for(uint256 i = 0; i < totalGames; i++) {\r\n      Game storage existingGame = games[i];\r\n      if (existingGame.player2 == address(0) && existingGame.gameState == States.Waiting && \r\n          !existingGame.is_private && existingGame.price == price) {\r\n        gameFound = true;\r\n        gameId = i;\r\n        break;\r\n      }\r\n    }\r\n\r\n    if (gameFound) {\r\n      Game storage existingGame = games[gameId];\r\n      existingGame.player2 = msg.sender;\r\n      existingGame.gameState = States.Connected;\r\n      emit PlayerJoined(gameId, msg.sender);\r\n    } else {\r\n        createGame(false,price);\r\n    }\r\n  }\r\n\r\n  function commitBoard(uint256 gameId, bytes32 root) external {\r\n    require(gameId < totalGames, \"Invalid game ID\");\r\n    Game storage game = games[gameId];\r\n\r\n    require(game.player1 != address(0), \"Game does not exist\");\r\n    require(game.gameState == States.Ready || game.gameState == States.Payed, \"Game already started\");\r\n    require(game.player1 == msg.sender || game.player2 == msg.sender, \"Player does not participate to this game\");\r\n    require(game.merkleRoots[msg.sender] == 0, \"Player already commited their board for this game\");\r\n\r\n    game.merkleRoots[msg.sender] = root;\r\n\r\n    //Waiting for the commit of the other player\r\n    if(game.gameState == States.Payed)\r\n      game.gameState = States.Ready;\r\n    //Other player already commited their board\r\n    else if(game.gameState == States.Ready)\r\n      game.gameState = States.Play;\r\n    \r\n    emit PlayerReady(gameId,msg.sender);\r\n  }\r\n\r\n  function currentTurn(uint256 gameId) public view returns (address){\r\n    require(gameId < totalGames, \"Invalid game ID\");\r\n    return games[gameId].current_turn;\r\n  }\r\n\r\n  function gameState(uint256 gameId) external view returns (uint8){\r\n    require(gameId < totalGames, \"Invalid game ID\");\r\n    if(games[gameId].gameState == States.Waiting)\r\n      return 0;\r\n    if(games[gameId].gameState == States.Connected)\r\n      return 1;\r\n    if(games[gameId].gameState == States.Payed)\r\n      return 2;\r\n    if(games[gameId].gameState == States.Ready)\r\n      return 3;\r\n    if(games[gameId].gameState == States.Play)\r\n      return 4;\r\n    if(games[gameId].gameState == States.Over)\r\n      return 5;\r\n    return 6;\r\n  }\r\n\r\n  function fire(uint256 gameId, uint8 coordinate) external{\r\n    require(gameId < totalGames, \"Invalid game ID\");\r\n    Game storage game = games[gameId];\r\n    require(game.player1 == msg.sender || game.player2 == msg.sender, \"Player does not participate to this game\");\r\n    require(game.gameState == States.Play, \"Firing not allowed\");\r\n    require(game.current_turn == msg.sender,\"Player must wait for their turn\");\r\n    require(coordinate >= 0 && coordinate < 100, \"Invalid coordinate\");\r\n    require(!game.waiting_result, \"Waiting for the result of previous shots\");\r\n    require(!game.shots[msg.sender][coordinate].verified, \"Player already fired to this coordinate\");\r\n\r\n    game.waiting_result = true;\r\n    address victim;\r\n    if(game.current_turn == game.player1)\r\n      victim = game.player2;\r\n    else \r\n      victim = game.player1;\r\n    \r\n    emit Fire(gameId,victim,coordinate);\r\n  }\r\n\r\n  function shotResult(uint256 gameId, uint8 coordinate, bool result, uint32 salt, bytes32[] calldata proof) external {\r\n    require(gameId < totalGames, \"Invalid game ID\");\r\n    Game storage game = games[gameId];\r\n    require(game.current_turn != msg.sender, \"Not player turn\");\r\n    require(game.gameState == States.Play,\"Operation not allowed in this game state\");\r\n    require(coordinate >= 0 && coordinate < 100, \"Invalid coordinate\");\r\n    require(game.player1 == msg.sender || game.player2 == msg.sender, \"Player does not participate to this game\");\r\n    require(game.waiting_result, \"Currently not waiting a result\");\r\n\r\n    address attacker = game.current_turn;\r\n\r\n    require(!game.shots[attacker][coordinate].verified, \"Proof for this coordinate already provided\");\r\n\r\n    if(verify(game.merkleRoots[msg.sender], result, salt, proof)){\r\n      game.shots[attacker][coordinate].result = result;\r\n       game.shots[attacker][coordinate].verified = true;\r\n      if(result)\r\n        game.scores[attacker]++;\r\n        \r\n      game.current_turn = msg.sender;\r\n      emit ShotResult(gameId,attacker,coordinate,result);\r\n      checkForWin(gameId, attacker);\r\n    }\r\n    else{\r\n      emit CheatingDetected(gameId, msg.sender);\r\n      game.gameState = States.Over;\r\n      declareWinner(gameId, attacker);\r\n    }\r\n    game.waiting_result = false;\r\n  }\r\n\r\nfunction verify(bytes32 root, bool result, uint32 salt, bytes32[] memory proof) private pure returns (bool){\r\n    \r\n    bytes32 computedHash = keccak256(abi.encode(result, salt));\r\n\r\n    for (uint256 i = 0; i < proof.length; i++) {\r\n      bytes32 proofElement = proof[i];\r\n\r\n      if (computedHash <= proofElement) {\r\n        // Hash(current computed hash + current element of the proof)\r\n        computedHash = keccak256(abi.encodePacked(computedHash, proofElement));\r\n      } else {\r\n        // Hash(current element of the proof + current computed hash)\r\n        computedHash = keccak256(abi.encodePacked(proofElement, computedHash));\r\n      }\r\n    }\r\n\r\n    // Check if the computed hash (root) is equal to the provided root\r\n    return computedHash == root;\r\n\r\n  }\r\n  \r\n  function checkBoardValidity(uint256 gameId, bool [] memory result, uint32 [] memory salt, bytes32[][] memory proof) public{\r\n\r\n    require(gameId < totalGames, \"Invalid game ID\");\r\n    Game storage game = games[gameId];\r\n    require(game.winner == msg.sender, \"Player is not the winner of the match\");\r\n    require(game.gameState == States.Over, \"Board validity not checked in this phase\");\r\n\r\n    uint8 placed_ships = 0;\r\n    bytes32 root = game.merkleRoots[msg.sender];\r\n\r\n    for (uint256 i = 0; i < result.length; i++){\r\n      if(verify(root, result[i], salt[i], proof[i]))\r\n        placed_ships = (result[i] == true? placed_ships+1 : placed_ships);\r\n      else{\r\n        emit CheatingDetected(gameId, msg.sender);\r\n        address winner = (msg.sender == game.player1? game.player2 : game.player1);\r\n        declareWinner(gameId, winner);\r\n        return;\r\n      }\r\n    }\r\n\r\n    if(placed_ships != game.winning_score){\r\n      emit CheatingDetected(gameId, msg.sender);\r\n      address winner = (msg.sender == game.player1? game.player2 : game.player1);\r\n      declareWinner(gameId, winner);\r\n    }\r\n    else{\r\n      declareWinner(gameId, msg.sender);\r\n    }\r\n  }\r\n\r\n  function checkForWin(uint256 gameId,address player) private {\r\n\r\n    Game storage game=games[gameId];\r\n    if(game.scores[player] == game.winning_score){\r\n      game.winner = address(uint160(player));\r\n      emit WaitingForBoardValidation(gameId, player);\r\n      game.gameState = States.Over;\r\n    }\r\n  }\r\n\r\n  function declareWinner(uint256 gameId, address winner) private{\r\n    Game storage game=games[gameId];\r\n    emit Winner(gameId, winner);\r\n    game.winner = address(uint160(winner));\r\n    game.gameState = States.Rewarded;\r\n    game.winner.transfer(game.balance);\r\n  }\r\n}\r\n",
  "sourcePath": "C:\\Users\\filip\\OneDrive\\Desktop\\Universit\\2 cybersecurity\\P2P and blockchain\\BattleShip\\contracts\\Battleship.sol",
  "compiler": {
    "name": "solc",
    "version": "0.5.16+commit.9c3226ce.Emscripten.clang"
  },
  "schemaVersion": "3.4.13",
  "updatedAt": "2023-08-17T00:10:26.676Z",
  "networkType": "ethereum",
  "devdoc": {
    "methods": {}
  },
  "userdoc": {
    "methods": {}
  }
}