{
  "contractName": "Battleship",
  "abi": [
    {
      "anonymous": false,
      "inputs": [
        {
          "indexed": true,
          "internalType": "uint256",
          "name": "gameId",
          "type": "uint256"
        },
        {
          "indexed": true,
          "internalType": "address",
          "name": "player1",
          "type": "address"
        }
      ],
      "name": "GameCreated",
      "type": "event"
    },
    {
      "anonymous": false,
      "inputs": [
        {
          "indexed": true,
          "internalType": "uint256",
          "name": "gameId",
          "type": "uint256"
        },
        {
          "indexed": true,
          "internalType": "address",
          "name": "player2",
          "type": "address"
        }
      ],
      "name": "PlayerJoined",
      "type": "event"
    },
    {
      "constant": true,
      "inputs": [
        {
          "internalType": "uint256",
          "name": "",
          "type": "uint256"
        }
      ],
      "name": "games",
      "outputs": [
        {
          "internalType": "address",
          "name": "player1",
          "type": "address"
        },
        {
          "internalType": "address",
          "name": "player2",
          "type": "address"
        },
        {
          "internalType": "enum Battleship.States",
          "name": "gameSate",
          "type": "uint8"
        },
        {
          "internalType": "bool",
          "name": "is_private",
          "type": "bool"
        },
        {
          "internalType": "bytes32",
          "name": "root_p1",
          "type": "bytes32"
        },
        {
          "internalType": "bytes32",
          "name": "root_p2",
          "type": "bytes32"
        },
        {
          "internalType": "address",
          "name": "current_turn",
          "type": "address"
        },
        {
          "internalType": "uint8",
          "name": "score_p1",
          "type": "uint8"
        },
        {
          "internalType": "uint8",
          "name": "score_p2",
          "type": "uint8"
        }
      ],
      "payable": false,
      "stateMutability": "view",
      "type": "function"
    },
    {
      "constant": true,
      "inputs": [],
      "name": "totalGames",
      "outputs": [
        {
          "internalType": "uint256",
          "name": "",
          "type": "uint256"
        }
      ],
      "payable": false,
      "stateMutability": "view",
      "type": "function"
    },
    {
      "constant": false,
      "inputs": [],
      "name": "createPrivateGame",
      "outputs": [],
      "payable": false,
      "stateMutability": "nonpayable",
      "type": "function"
    },
    {
      "constant": false,
      "inputs": [
        {
          "internalType": "uint256",
          "name": "gameId",
          "type": "uint256"
        }
      ],
      "name": "joinGame",
      "outputs": [],
      "payable": false,
      "stateMutability": "nonpayable",
      "type": "function"
    },
    {
      "constant": false,
      "inputs": [],
      "name": "joinRandomGame",
      "outputs": [],
      "payable": false,
      "stateMutability": "nonpayable",
      "type": "function"
    }
  ],
  "bytecode": "0x608060405234801561001057600080fd5b5061098e806100206000396000f3fe608060405234801561001057600080fd5b50600436106100575760003560e01c8063117a5b901461005c5780632c4e591b14610178578063342ca184146101965780638f47e56a146101a0578063efaa55a0146101aa575b600080fd5b6100886004803603602081101561007257600080fd5b81019080803590602001909291905050506101d8565b604051808a73ffffffffffffffffffffffffffffffffffffffff1673ffffffffffffffffffffffffffffffffffffffff1681526020018973ffffffffffffffffffffffffffffffffffffffff1673ffffffffffffffffffffffffffffffffffffffff1681526020018860038111156100fc57fe5b60ff168152602001871515151581526020018681526020018581526020018473ffffffffffffffffffffffffffffffffffffffff1673ffffffffffffffffffffffffffffffffffffffff1681526020018360ff1660ff1681526020018260ff1660ff168152602001995050505050505050505060405180910390f35b6101806102ba565b6040518082815260200191505060405180910390f35b61019e6102c0565b005b6101a8610476565b005b6101d6600480360360208110156101c057600080fd5b8101908080359060200190929190505050610482565b005b60006020528060005260406000206000915090508060000160009054906101000a900473ffffffffffffffffffffffffffffffffffffffff16908060010160009054906101000a900473ffffffffffffffffffffffffffffffffffffffff16908060010160149054906101000a900460ff16908060010160159054906101000a900460ff16908060020154908060030154908060040160009054906101000a900473ffffffffffffffffffffffffffffffffffffffff16908060040160149054906101000a900460ff16908060040160159054906101000a900460ff16905089565b60015481565b6000809050600080905060008090505b6001548110156103975760008060008381526020019081526020016000209050600073ffffffffffffffffffffffffffffffffffffffff168160010160009054906101000a900473ffffffffffffffffffffffffffffffffffffffff1673ffffffffffffffffffffffffffffffffffffffff1614801561037757506000600381111561035857fe5b8160010160149054906101000a900460ff16600381111561037557fe5b145b15610389576001925081935050610397565b5080806001019150506102d0565b5080156104675760008060008481526020019081526020016000209050338160010160006101000a81548173ffffffffffffffffffffffffffffffffffffffff021916908373ffffffffffffffffffffffffffffffffffffffff16021790555060018160010160146101000a81548160ff0219169083600381111561041857fe5b02179055503373ffffffffffffffffffffffffffffffffffffffff16837f87969bc7faf902221a147b95ceba76e011c5efb0339a0a8ee7a2bb82d9cfbbd660405160405180910390a350610472565b6104716000610860565b5b5050565b6104806001610860565b565b60015481106104f9576040517f08c379a000000000000000000000000000000000000000000000000000000000815260040180806020018281038252600f8152602001807f496e76616c69642067616d65204944000000000000000000000000000000000081525060200191505060405180910390fd5b60008060008381526020019081526020016000209050600073ffffffffffffffffffffffffffffffffffffffff168160000160009054906101000a900473ffffffffffffffffffffffffffffffffffffffff1673ffffffffffffffffffffffffffffffffffffffff1614156105d6576040517f08c379a00000000000000000000000000000000000000000000000000000000081526004018080602001828103825260138152602001807f47616d6520646f6573206e6f742065786973740000000000000000000000000081525060200191505060405180910390fd5b600160038111156105e357fe5b8160010160149054906101000a900460ff16600381111561060057fe5b1415610674576040517f08c379a000000000000000000000000000000000000000000000000000000000815260040180806020018281038252601a8152602001807f47616d6520616c726561647920686173203220706c617965727300000000000081525060200191505060405180910390fd5b6002600381111561068157fe5b8160010160149054906101000a900460ff16600381111561069e57fe5b1415610712576040517f08c379a00000000000000000000000000000000000000000000000000000000081526004018080602001828103825260148152602001807f47616d6520616c7265616479207374617274656400000000000000000000000081525060200191505060405180910390fd5b60038081111561071e57fe5b8160010160149054906101000a900460ff16600381111561073b57fe5b14156107af576040517f08c379a00000000000000000000000000000000000000000000000000000000081526004018080602001828103825260118152602001807f47616d6520616c7265616479206f76657200000000000000000000000000000081525060200191505060405180910390fd5b338160010160006101000a81548173ffffffffffffffffffffffffffffffffffffffff021916908373ffffffffffffffffffffffffffffffffffffffff16021790555060018160010160146101000a81548160ff0219169083600381111561081357fe5b02179055503373ffffffffffffffffffffffffffffffffffffffff16827f87969bc7faf902221a147b95ceba76e011c5efb0339a0a8ee7a2bb82d9cfbbd660405160405180910390a35050565b60006001600081548092919060010191905055905060008060008381526020019081526020016000209050338160000160006101000a81548173ffffffffffffffffffffffffffffffffffffffff021916908373ffffffffffffffffffffffffffffffffffffffff16021790555060008160010160146101000a81548160ff021916908360038111156108ef57fe5b0217905550828160010160156101000a81548160ff0219169083151502179055503373ffffffffffffffffffffffffffffffffffffffff16827fc3e0f84839dc888c892a013d10c8f9d6dc05a21a879d0ce468ca558013e9121c60405160405180910390a350505056fea265627a7a72315820d818f4ed41459cc334af014596084453c71ec98d263a38618f8479ef581630a064736f6c63430005100032",
  "source": "// SPDX-License-Identifier: MIT \npragma solidity >=0.5.0 <0.9.0;\n\ncontract Battleship {\n  enum States{\n    Waiting,\n    Connected,\n    Ready,\n    Over\n  }\n\n  struct Game {\n    address player1;\n    address player2;\n    States gameSate;\n    bool is_private;\n    bytes32 root_p1;\n    bytes32 root_p2;\n    address current_turn;\n    uint8 score_p1;\n    uint8 score_p2;\n  }\n\n  mapping(uint256 => Game) public games;\n  uint256 public totalGames;\n\n  event GameCreated(uint256 indexed gameId, address indexed player1);\n  event PlayerJoined(uint256 indexed gameId, address indexed player2);\n\n  function createGame(bool priv) private{\n    uint256 gameId = totalGames++;\n    Game storage newGame = games[gameId];\n    newGame.player1 = msg.sender;\n    newGame.gameSate = States.Waiting;\n    newGame.is_private = priv;\n    emit GameCreated(gameId, msg.sender);\n  }\n\n  function createPrivateGame() external {\n    createGame(true);\n  }\n\n  function joinGame(uint256 gameId) external {\n    require(gameId < totalGames, \"Invalid game ID\");\n    Game storage existingGame = games[gameId];\n\n    require(existingGame.player1 != address(0), \"Game does not exist\");\n    require(existingGame.gameSate != States.Connected, \"Game already has 2 players\");\n    require(existingGame.gameSate != States.Ready, \"Game already started\");\n    require(existingGame.gameSate != States.Over, \"Game already over\");\n\n    existingGame.player2 = msg.sender;\n    existingGame.gameSate = States.Connected;\n    emit PlayerJoined(gameId, msg.sender);\n  }\n\n\n  function joinRandomGame() external {\n    uint256 gameId = 0;\n    bool gameFound = false;\n\n    for(uint256 i = 0; i < totalGames; i++) {\n      Game storage existingGame = games[i];\n      if (existingGame.player2 == address(0) && existingGame.gameSate == States.Waiting) {\n        gameFound = true;\n        gameId = i;\n        break;\n      }\n    }\n\n    if (gameFound) {\n      Game storage existingGame = games[gameId];\n      existingGame.player2 = msg.sender;\n      existingGame.gameSate = States.Connected;\n      emit PlayerJoined(gameId, msg.sender);\n    } else {\n        createGame(false);\n    }\n  }\n\n  function verify(bytes32 root, bool result, uint16 salt, bytes32[] memory proof) private pure returns (bool){\n    \n    bytes32 computedHash = keccak256(abi.encodePacked(result, salt));\n\n    for (uint256 i = 0; i < proof.length; i++) {\n      bytes32 proofElement = proof[i];\n\n      if (computedHash <= proofElement) {\n        // Hash(current computed hash + current element of the proof)\n        computedHash = keccak256(abi.encodePacked(computedHash, proofElement));\n      } else {\n        // Hash(current element of the proof + current computed hash)\n        computedHash = keccak256(abi.encodePacked(proofElement, computedHash));\n      }\n    }\n\n    // Check if the computed hash (root) is equal to the provided root\n    return computedHash == root;\n  }\n}\n",
  "sourcePath": "C:\\Users\\filip\\OneDrive\\Desktop\\Università\\2° cybersecurity\\P2P and blockchain\\BattleShip\\contracts\\Battleship.sol",
  "compiler": {
    "name": "solc",
    "version": "0.5.16+commit.9c3226ce.Emscripten.clang"
  },
  "schemaVersion": "3.4.13",
  "updatedAt": "2023-08-02T09:36:05.077Z",
  "networkType": "ethereum",
  "devdoc": {
    "methods": {}
  },
  "userdoc": {
    "methods": {}
  }
}