{
  "contractName": "Battleship",
  "abi": [
    {
      "anonymous": false,
      "inputs": [
        {
          "indexed": true,
          "internalType": "uint256",
          "name": "gameId",
          "type": "uint256"
        },
        {
          "indexed": true,
          "internalType": "address",
          "name": "cheater",
          "type": "address"
        }
      ],
      "name": "CheatingDetected",
      "type": "event"
    },
    {
      "anonymous": false,
      "inputs": [
        {
          "indexed": true,
          "internalType": "uint256",
          "name": "gameId",
          "type": "uint256"
        },
        {
          "indexed": true,
          "internalType": "address",
          "name": "victim",
          "type": "address"
        },
        {
          "indexed": false,
          "internalType": "uint8",
          "name": "coordinate",
          "type": "uint8"
        }
      ],
      "name": "Fire",
      "type": "event"
    },
    {
      "anonymous": false,
      "inputs": [
        {
          "indexed": true,
          "internalType": "uint256",
          "name": "gameId",
          "type": "uint256"
        },
        {
          "indexed": false,
          "internalType": "address",
          "name": "player1",
          "type": "address"
        }
      ],
      "name": "GameCreated",
      "type": "event"
    },
    {
      "anonymous": false,
      "inputs": [
        {
          "indexed": true,
          "internalType": "uint256",
          "name": "gameId",
          "type": "uint256"
        },
        {
          "indexed": false,
          "internalType": "address",
          "name": "player2",
          "type": "address"
        }
      ],
      "name": "PlayerJoined",
      "type": "event"
    },
    {
      "anonymous": false,
      "inputs": [
        {
          "indexed": true,
          "internalType": "uint256",
          "name": "gameId",
          "type": "uint256"
        },
        {
          "indexed": false,
          "internalType": "address",
          "name": "player",
          "type": "address"
        }
      ],
      "name": "PlayerReady",
      "type": "event"
    },
    {
      "anonymous": false,
      "inputs": [
        {
          "indexed": true,
          "internalType": "uint256",
          "name": "gameId",
          "type": "uint256"
        },
        {
          "indexed": true,
          "internalType": "address",
          "name": "attacker",
          "type": "address"
        },
        {
          "indexed": true,
          "internalType": "uint8",
          "name": "coordinate",
          "type": "uint8"
        },
        {
          "indexed": false,
          "internalType": "bool",
          "name": "result",
          "type": "bool"
        }
      ],
      "name": "ShotResult",
      "type": "event"
    },
    {
      "anonymous": false,
      "inputs": [
        {
          "indexed": true,
          "internalType": "uint256",
          "name": "gameId",
          "type": "uint256"
        },
        {
          "indexed": true,
          "internalType": "address",
          "name": "winner",
          "type": "address"
        }
      ],
      "name": "Winner",
      "type": "event"
    },
    {
      "constant": true,
      "inputs": [
        {
          "internalType": "uint256",
          "name": "",
          "type": "uint256"
        }
      ],
      "name": "games",
      "outputs": [
        {
          "internalType": "address",
          "name": "player1",
          "type": "address"
        },
        {
          "internalType": "address",
          "name": "player2",
          "type": "address"
        },
        {
          "internalType": "enum Battleship.States",
          "name": "gameState",
          "type": "uint8"
        },
        {
          "internalType": "bool",
          "name": "is_private",
          "type": "bool"
        },
        {
          "internalType": "address",
          "name": "current_turn",
          "type": "address"
        },
        {
          "internalType": "uint8",
          "name": "winning_score",
          "type": "uint8"
        },
        {
          "internalType": "bool",
          "name": "waiting_result",
          "type": "bool"
        }
      ],
      "payable": false,
      "stateMutability": "view",
      "type": "function"
    },
    {
      "constant": true,
      "inputs": [],
      "name": "totalGames",
      "outputs": [
        {
          "internalType": "uint256",
          "name": "",
          "type": "uint256"
        }
      ],
      "payable": false,
      "stateMutability": "view",
      "type": "function"
    },
    {
      "constant": false,
      "inputs": [],
      "name": "createPrivateGame",
      "outputs": [],
      "payable": false,
      "stateMutability": "nonpayable",
      "type": "function"
    },
    {
      "constant": false,
      "inputs": [
        {
          "internalType": "uint256",
          "name": "gameId",
          "type": "uint256"
        }
      ],
      "name": "joinGame",
      "outputs": [],
      "payable": false,
      "stateMutability": "nonpayable",
      "type": "function"
    },
    {
      "constant": false,
      "inputs": [],
      "name": "joinRandomGame",
      "outputs": [],
      "payable": false,
      "stateMutability": "nonpayable",
      "type": "function"
    },
    {
      "constant": false,
      "inputs": [
        {
          "internalType": "uint256",
          "name": "gameId",
          "type": "uint256"
        },
        {
          "internalType": "bytes32",
          "name": "root",
          "type": "bytes32"
        }
      ],
      "name": "commitBoard",
      "outputs": [],
      "payable": false,
      "stateMutability": "nonpayable",
      "type": "function"
    },
    {
      "constant": true,
      "inputs": [
        {
          "internalType": "uint256",
          "name": "gameId",
          "type": "uint256"
        }
      ],
      "name": "currentTurn",
      "outputs": [
        {
          "internalType": "address",
          "name": "",
          "type": "address"
        }
      ],
      "payable": false,
      "stateMutability": "view",
      "type": "function"
    },
    {
      "constant": true,
      "inputs": [
        {
          "internalType": "uint256",
          "name": "gameId",
          "type": "uint256"
        }
      ],
      "name": "gameState",
      "outputs": [
        {
          "internalType": "uint8",
          "name": "",
          "type": "uint8"
        }
      ],
      "payable": false,
      "stateMutability": "view",
      "type": "function"
    },
    {
      "constant": false,
      "inputs": [
        {
          "internalType": "uint256",
          "name": "gameId",
          "type": "uint256"
        },
        {
          "internalType": "uint8",
          "name": "coordinate",
          "type": "uint8"
        }
      ],
      "name": "fire",
      "outputs": [],
      "payable": false,
      "stateMutability": "nonpayable",
      "type": "function"
    },
    {
      "constant": false,
      "inputs": [
        {
          "internalType": "uint256",
          "name": "gameId",
          "type": "uint256"
        },
        {
          "internalType": "uint8",
          "name": "coordinate",
          "type": "uint8"
        },
        {
          "internalType": "bool",
          "name": "result",
          "type": "bool"
        },
        {
          "internalType": "bytes2",
          "name": "salt",
          "type": "bytes2"
        },
        {
          "internalType": "bytes32[]",
          "name": "proof",
          "type": "bytes32[]"
        }
      ],
      "name": "shotResult",
      "outputs": [],
      "payable": false,
      "stateMutability": "nonpayable",
      "type": "function"
    }
  ],
  "bytecode": "0x608060405234801561001057600080fd5b506122be806100206000396000f3fe608060405234801561001057600080fd5b506004361061009e5760003560e01c80638f47e56a116100665780638f47e56a1461028d578063aac033b914610297578063aae38ea8146102cf578063b3d52cf01461030a578063efaa55a0146103d15761009e565b8063117a5b90146100a357806318bc9ed6146101af5780632c4e591b1461021d578063342ca1841461023b5780634e0e1a3e14610245575b600080fd5b6100cf600480360360208110156100b957600080fd5b81019080803590602001909291905050506103ff565b604051808873ffffffffffffffffffffffffffffffffffffffff1673ffffffffffffffffffffffffffffffffffffffff1681526020018773ffffffffffffffffffffffffffffffffffffffff1673ffffffffffffffffffffffffffffffffffffffff16815260200186600481111561014357fe5b60ff168152602001851515151581526020018473ffffffffffffffffffffffffffffffffffffffff1673ffffffffffffffffffffffffffffffffffffffff1681526020018360ff1660ff1681526020018215151515815260200197505050505050505060405180910390f35b6101db600480360360208110156101c557600080fd5b81019080803590602001909291905050506104d5565b604051808273ffffffffffffffffffffffffffffffffffffffff1673ffffffffffffffffffffffffffffffffffffffff16815260200191505060405180910390f35b61022561058b565b6040518082815260200191505060405180910390f35b610243610591565b005b6102716004803603602081101561025b57600080fd5b8101908080359060200190929190505050610782565b604051808260ff1660ff16815260200191505060405180910390f35b61029561092d565b005b6102cd600480360360408110156102ad57600080fd5b810190808035906020019092919080359060200190929190505050610939565b005b610308600480360360408110156102e557600080fd5b8101908080359060200190929190803560ff169060200190929190505050610e5c565b005b6103cf600480360360a081101561032057600080fd5b8101908080359060200190929190803560ff16906020019092919080351515906020019092919080357dffffffffffffffffffffffffffffffffffffffffffffffffffffffffffff191690602001909291908035906020019064010000000081111561038b57600080fd5b82018360208201111561039d57600080fd5b803590602001918460208302840111640100000000831117156103bf57600080fd5b9091929391929390505050611374565b005b6103fd600480360360208110156103e757600080fd5b8101908080359060200190929190505050611b46565b005b60006020528060005260406000206000915090508060000160009054906101000a900473ffffffffffffffffffffffffffffffffffffffff16908060010160009054906101000a900473ffffffffffffffffffffffffffffffffffffffff16908060010160149054906101000a900460ff16908060010160159054906101000a900460ff16908060030160009054906101000a900473ffffffffffffffffffffffffffffffffffffffff16908060050160009054906101000a900460ff16908060070160009054906101000a900460ff16905087565b6000600154821061054e576040517f08c379a000000000000000000000000000000000000000000000000000000000815260040180806020018281038252600f8152602001807f496e76616c69642067616d65204944000000000000000000000000000000000081525060200191505060405180910390fd5b60008083815260200190815260200160002060030160009054906101000a900473ffffffffffffffffffffffffffffffffffffffff169050919050565b60015481565b6000809050600080905060008090505b6001548110156106835760008060008381526020019081526020016000209050600073ffffffffffffffffffffffffffffffffffffffff168160010160009054906101000a900473ffffffffffffffffffffffffffffffffffffffff1673ffffffffffffffffffffffffffffffffffffffff1614801561064857506000600481111561062957fe5b8160010160149054906101000a900460ff16600481111561064657fe5b145b801561066357508060010160159054906101000a900460ff16155b15610675576001925081935050610683565b5080806001019150506105a1565b5080156107735760008060008481526020019081526020016000209050338160010160006101000a81548173ffffffffffffffffffffffffffffffffffffffff021916908373ffffffffffffffffffffffffffffffffffffffff16021790555060018160010160146101000a81548160ff0219169083600481111561070457fe5b0217905550827f87969bc7faf902221a147b95ceba76e011c5efb0339a0a8ee7a2bb82d9cfbbd633604051808273ffffffffffffffffffffffffffffffffffffffff1673ffffffffffffffffffffffffffffffffffffffff16815260200191505060405180910390a25061077e565b61077d6000611e08565b5b5050565b600060015482106107fb576040517f08c379a000000000000000000000000000000000000000000000000000000000815260040180806020018281038252600f8152602001807f496e76616c69642067616d65204944000000000000000000000000000000000081525060200191505060405180910390fd5b6000600481111561080857fe5b60008084815260200190815260200160002060010160149054906101000a900460ff16600481111561083657fe5b14156108455760009050610928565b6001600481111561085257fe5b60008084815260200190815260200160002060010160149054906101000a900460ff16600481111561088057fe5b141561088f5760019050610928565b6002600481111561089c57fe5b60008084815260200190815260200160002060010160149054906101000a900460ff1660048111156108ca57fe5b14156108d95760029050610928565b600360048111156108e657fe5b60008084815260200190815260200160002060010160149054906101000a900460ff16600481111561091457fe5b14156109235760039050610928565b600490505b919050565b6109376001611e08565b565b60015482106109b0576040517f08c379a000000000000000000000000000000000000000000000000000000000815260040180806020018281038252600f8152602001807f496e76616c69642067616d65204944000000000000000000000000000000000081525060200191505060405180910390fd5b60008060008481526020019081526020016000209050600073ffffffffffffffffffffffffffffffffffffffff168160000160009054906101000a900473ffffffffffffffffffffffffffffffffffffffff1673ffffffffffffffffffffffffffffffffffffffff161415610a8d576040517f08c379a00000000000000000000000000000000000000000000000000000000081526004018080602001828103825260138152602001807f47616d6520646f6573206e6f742065786973740000000000000000000000000081525060200191505060405180910390fd5b60026004811115610a9a57fe5b8160010160149054906101000a900460ff166004811115610ab757fe5b1480610aea575060016004811115610acb57fe5b8160010160149054906101000a900460ff166004811115610ae857fe5b145b610b5c576040517f08c379a00000000000000000000000000000000000000000000000000000000081526004018080602001828103825260148152602001807f47616d6520616c7265616479207374617274656400000000000000000000000081525060200191505060405180910390fd5b3373ffffffffffffffffffffffffffffffffffffffff168160000160009054906101000a900473ffffffffffffffffffffffffffffffffffffffff1673ffffffffffffffffffffffffffffffffffffffff161480610c0957503373ffffffffffffffffffffffffffffffffffffffff168160010160009054906101000a900473ffffffffffffffffffffffffffffffffffffffff1673ffffffffffffffffffffffffffffffffffffffff16145b610c5e576040517f08c379a00000000000000000000000000000000000000000000000000000000081526004018080602001828103825260288152602001806121906028913960400191505060405180910390fd5b6000801b8160020160003373ffffffffffffffffffffffffffffffffffffffff1673ffffffffffffffffffffffffffffffffffffffff1681526020019081526020016000205414610cfa576040517f08c379a00000000000000000000000000000000000000000000000000000000081526004018080602001828103825260318152602001806122096031913960400191505060405180910390fd5b818160020160003373ffffffffffffffffffffffffffffffffffffffff1673ffffffffffffffffffffffffffffffffffffffff1681526020019081526020016000208190555060016004811115610d4d57fe5b8160010160149054906101000a900460ff166004811115610d6a57fe5b1415610d9b5760028160010160146101000a81548160ff02191690836004811115610d9157fe5b0217905550610df3565b60026004811115610da857fe5b8160010160149054906101000a900460ff166004811115610dc557fe5b1415610df25760038160010160146101000a81548160ff02191690836004811115610dec57fe5b02179055505b5b827f6ca87004dea1dbeec045b0dc2f98a5c0375f003f7948b77a694ebd6f22682a8033604051808273ffffffffffffffffffffffffffffffffffffffff1673ffffffffffffffffffffffffffffffffffffffff16815260200191505060405180910390a2505050565b6001548210610ed3576040517f08c379a000000000000000000000000000000000000000000000000000000000815260040180806020018281038252600f8152602001807f496e76616c69642067616d65204944000000000000000000000000000000000081525060200191505060405180910390fd5b600080600084815260200190815260200160002090503373ffffffffffffffffffffffffffffffffffffffff168160000160009054906101000a900473ffffffffffffffffffffffffffffffffffffffff1673ffffffffffffffffffffffffffffffffffffffff161480610f9657503373ffffffffffffffffffffffffffffffffffffffff168160010160009054906101000a900473ffffffffffffffffffffffffffffffffffffffff1673ffffffffffffffffffffffffffffffffffffffff16145b610feb576040517f08c379a00000000000000000000000000000000000000000000000000000000081526004018080602001828103825260288152602001806121906028913960400191505060405180910390fd5b60036004811115610ff857fe5b8160010160149054906101000a900460ff16600481111561101557fe5b14611088576040517f08c379a00000000000000000000000000000000000000000000000000000000081526004018080602001828103825260128152602001807f466972696e67206e6f7420616c6c6f776564000000000000000000000000000081525060200191505060405180910390fd5b3373ffffffffffffffffffffffffffffffffffffffff168160030160009054906101000a900473ffffffffffffffffffffffffffffffffffffffff1673ffffffffffffffffffffffffffffffffffffffff161461114d576040517f08c379a000000000000000000000000000000000000000000000000000000000815260040180806020018281038252601f8152602001807f506c61796572206d757374207761697420666f72207468656972207475726e0081525060200191505060405180910390fd5b60008260ff1610158015611164575060648260ff16105b6111d6576040517f08c379a00000000000000000000000000000000000000000000000000000000081526004018080602001828103825260128152602001807f496e76616c696420636f6f7264696e617465000000000000000000000000000081525060200191505060405180910390fd5b8060070160009054906101000a900460ff161561123e576040517f08c379a000000000000000000000000000000000000000000000000000000000815260040180806020018281038252602881526020018061223a6028913960400191505060405180910390fd5b8060060160003373ffffffffffffffffffffffffffffffffffffffff1673ffffffffffffffffffffffffffffffffffffffff16815260200190815260200160002060008360ff1660ff16815260200190815260200160002060000160019054906101000a900460ff16156112fd576040517f08c379a00000000000000000000000000000000000000000000000000000000081526004018080602001828103825260278152602001806121b86027913960400191505060405180910390fd5b60018160070160006101000a81548160ff0219169083151502179055503373ffffffffffffffffffffffffffffffffffffffff16837fae19dfa7e871b72e1c5e5a67d39988b7d0b642d25ef898f980d245ee2db2decc84604051808260ff1660ff16815260200191505060405180910390a3505050565b60015486106113eb576040517f08c379a000000000000000000000000000000000000000000000000000000000815260040180806020018281038252600f8152602001807f496e76616c69642067616d65204944000000000000000000000000000000000081525060200191505060405180910390fd5b600080600088815260200190815260200160002090503373ffffffffffffffffffffffffffffffffffffffff168160030160009054906101000a900473ffffffffffffffffffffffffffffffffffffffff1673ffffffffffffffffffffffffffffffffffffffff1614156114c7576040517f08c379a000000000000000000000000000000000000000000000000000000000815260040180806020018281038252600f8152602001807f4e6f7420706c61796572207475726e000000000000000000000000000000000081525060200191505060405180910390fd5b600360048111156114d457fe5b8160010160149054906101000a900460ff1660048111156114f157fe5b14611547576040517f08c379a00000000000000000000000000000000000000000000000000000000081526004018080602001828103825260288152602001806122626028913960400191505060405180910390fd5b60008660ff161015801561155e575060648660ff16105b6115d0576040517f08c379a00000000000000000000000000000000000000000000000000000000081526004018080602001828103825260128152602001807f496e76616c696420636f6f7264696e617465000000000000000000000000000081525060200191505060405180910390fd5b3373ffffffffffffffffffffffffffffffffffffffff168160000160009054906101000a900473ffffffffffffffffffffffffffffffffffffffff1673ffffffffffffffffffffffffffffffffffffffff16148061167d57503373ffffffffffffffffffffffffffffffffffffffff168160010160009054906101000a900473ffffffffffffffffffffffffffffffffffffffff1673ffffffffffffffffffffffffffffffffffffffff16145b6116d2576040517f08c379a00000000000000000000000000000000000000000000000000000000081526004018080602001828103825260288152602001806121906028913960400191505060405180910390fd5b8060070160009054906101000a900460ff16611756576040517f08c379a000000000000000000000000000000000000000000000000000000000815260040180806020018281038252601e8152602001807f43757272656e746c79206e6f742077616974696e67206120726573756c74000081525060200191505060405180910390fd5b60008160030160009054906101000a900473ffffffffffffffffffffffffffffffffffffffff1690508160060160008273ffffffffffffffffffffffffffffffffffffffff1673ffffffffffffffffffffffffffffffffffffffff16815260200190815260200160002060008860ff1660ff16815260200190815260200160002060000160019054906101000a900460ff161561183e576040517f08c379a000000000000000000000000000000000000000000000000000000000815260040180806020018281038252602a8152602001806121df602a913960400191505060405180910390fd5b6118cc8260020160003373ffffffffffffffffffffffffffffffffffffffff1673ffffffffffffffffffffffffffffffffffffffff168152602001908152602001600020548787878780806020026020016040519081016040528093929190818152602001838360200280828437600081840152601f19601f82011690508083019250505050505050611f82565b15611ada57858260060160008373ffffffffffffffffffffffffffffffffffffffff1673ffffffffffffffffffffffffffffffffffffffff16815260200190815260200160002060008960ff1660ff16815260200190815260200160002060000160006101000a81548160ff02191690831515021790555060018260060160008373ffffffffffffffffffffffffffffffffffffffff1673ffffffffffffffffffffffffffffffffffffffff16815260200190815260200160002060008960ff1660ff16815260200190815260200160002060000160016101000a81548160ff0219169083151502179055508515611a30578160040160008273ffffffffffffffffffffffffffffffffffffffff1673ffffffffffffffffffffffffffffffffffffffff168152602001908152602001600020600081819054906101000a900460ff168092919060010191906101000a81548160ff021916908360ff160217905550505b338260030160006101000a81548173ffffffffffffffffffffffffffffffffffffffff021916908373ffffffffffffffffffffffffffffffffffffffff1602179055508660ff168173ffffffffffffffffffffffffffffffffffffffff16897f643d22060fdd6452e9d00cb46911d684f5f21a0792184e2980107b70f44e50c989604051808215151515815260200191505060405180910390a4611ad58883836120b2565b611b1f565b3373ffffffffffffffffffffffffffffffffffffffff16887f153b0f7771c671c1687a3dec3ae2d4fea7d83e189ac5562124ec923f559efe4760405160405180910390a35b60008260070160006101000a81548160ff0219169083151502179055505050505050505050565b6001548110611bbd576040517f08c379a000000000000000000000000000000000000000000000000000000000815260040180806020018281038252600f8152602001807f496e76616c69642067616d65204944000000000000000000000000000000000081525060200191505060405180910390fd5b60008060008381526020019081526020016000209050600073ffffffffffffffffffffffffffffffffffffffff168160000160009054906101000a900473ffffffffffffffffffffffffffffffffffffffff1673ffffffffffffffffffffffffffffffffffffffff161415611c9a576040517f08c379a00000000000000000000000000000000000000000000000000000000081526004018080602001828103825260138152602001807f47616d6520646f6573206e6f742065786973740000000000000000000000000081525060200191505060405180910390fd5b60006004811115611ca757fe5b8160010160149054906101000a900460ff166004811115611cc457fe5b14611d37576040517f08c379a00000000000000000000000000000000000000000000000000000000081526004018080602001828103825260148152602001807f47616d6520616c7265616479207374617274656400000000000000000000000081525060200191505060405180910390fd5b338160010160006101000a81548173ffffffffffffffffffffffffffffffffffffffff021916908373ffffffffffffffffffffffffffffffffffffffff16021790555060018160010160146101000a81548160ff02191690836004811115611d9b57fe5b0217905550817f87969bc7faf902221a147b95ceba76e011c5efb0339a0a8ee7a2bb82d9cfbbd633604051808273ffffffffffffffffffffffffffffffffffffffff1673ffffffffffffffffffffffffffffffffffffffff16815260200191505060405180910390a25050565b60006001600081548092919060010191905055905060008060008381526020019081526020016000209050338160000160006101000a81548173ffffffffffffffffffffffffffffffffffffffff021916908373ffffffffffffffffffffffffffffffffffffffff16021790555060008160010160146101000a81548160ff02191690836004811115611e9757fe5b0217905550828160010160156101000a81548160ff021916908315150217905550338160030160006101000a81548173ffffffffffffffffffffffffffffffffffffffff021916908373ffffffffffffffffffffffffffffffffffffffff16021790555060118160050160006101000a81548160ff021916908360ff160217905550817fc3e0f84839dc888c892a013d10c8f9d6dc05a21a879d0ce468ca558013e9121c33604051808273ffffffffffffffffffffffffffffffffffffffff1673ffffffffffffffffffffffffffffffffffffffff16815260200191505060405180910390a2505050565b600080848460405160200180831515151560f81b8152600101827dffffffffffffffffffffffffffffffffffffffffffffffffffffffffffff19167dffffffffffffffffffffffffffffffffffffffffffffffffffffffffffff191681526002019250505060405160208183030381529060405280519060200120905060008090505b83518110156120a357600084828151811061201c57fe5b602002602001015190508083116120635782816040516020018083815260200182815260200192505050604051602081830303815290604052805190602001209250612095565b808360405160200180838152602001828152602001925050506040516020818303038152906040528051906020012092505b508080600101915050612005565b50858114915050949350505050565b8160050160009054906101000a900460ff1660ff168260040160008373ffffffffffffffffffffffffffffffffffffffff1673ffffffffffffffffffffffffffffffffffffffff16815260200190815260200160002060009054906101000a900460ff1660ff16141561218a578073ffffffffffffffffffffffffffffffffffffffff16837f6b5936f5be80114e7a91daf84ba4886ece975aaffac48c9609cfa022d74a8a7d60405160405180910390a360048260010160146101000a81548160ff0219169083600481111561218457fe5b02179055505b50505056fe506c6179657220646f6573206e6f7420706172746963697061746520746f20746869732067616d65506c6179657220616c726561647920666972656420746f207468697320636f6f7264696e61746550726f6f6620666f72207468697320636f6f7264696e61746520616c72656164792070726f7669646564506c6179657220616c726561647920636f6d6d6974656420746865697220626f61726420666f7220746869732067616d6557616974696e6720666f722074686520726573756c74206f662070726576696f75732073686f74734f7065726174696f6e206e6f7420616c6c6f77656420696e20746869732067616d65207374617465a265627a7a72315820ae548da51e0b7493de3c727846aced5f2c7c4071a4c8a63f26062be8ed7060e964736f6c63430005100032",
  "source": "// SPDX-License-Identifier: MIT \npragma solidity >=0.5.0 <0.9.0;\n\ncontract Battleship {\n  enum States{\n    Waiting,\n    Connected,\n    Ready,\n    Play,\n    Over\n  }\n  \n  struct Shot{\n    bool result;\n    bool verified;\n  }\n\n  struct Game {\n    address player1;\n    address player2;\n    States gameState;\n    bool is_private;\n    mapping(address => bytes32) merkleRoots;\n    address current_turn;\n    mapping(address => uint8) scores;\n    uint8 winning_score;\n    mapping(address => mapping(uint8 => Shot)) shots;\n    bool waiting_result;\n  }\n\n  mapping(uint256 => Game) public games;\n  uint256 public totalGames;\n\n  event GameCreated(uint256 indexed gameId, address player1);\n  event PlayerJoined(uint256 indexed gameId, address player2);\n  event PlayerReady(uint256 indexed gameId, address player);\n  event Fire(uint256 indexed gameId, address indexed  victim, uint8 coordinate);\n  event ShotResult(uint256 indexed gameId, address indexed attacker, uint8 indexed coordinate, bool result);\n  event CheatingDetected(uint256 indexed gameId, address indexed cheater);\n  event Winner(uint256 indexed gameId, address indexed winner);\n\n  function createGame(bool priv) private{\n    uint256 gameId = totalGames++;\n    Game storage newGame = games[gameId];\n    newGame.player1 = msg.sender;\n    newGame.gameState = States.Waiting;\n    newGame.is_private = priv;\n    newGame.current_turn = msg.sender;\n    newGame.winning_score = 17;\n    emit GameCreated(gameId, msg.sender);\n  }\n\n  function createPrivateGame() external {\n    createGame(true);\n  }\n\n  function joinGame(uint256 gameId) external {\n    require(gameId < totalGames, \"Invalid game ID\");\n    Game storage existingGame = games[gameId];\n\n    require(existingGame.player1 != address(0), \"Game does not exist\");\n    require(existingGame.gameState == States.Waiting,\"Game already started\");\n\n    existingGame.player2 = msg.sender;\n    existingGame.gameState = States.Connected;\n    emit PlayerJoined(gameId, msg.sender);\n  }\n\n\n  function joinRandomGame() external {\n    uint256 gameId = 0;\n    bool gameFound = false;\n\n    for(uint256 i = 0; i < totalGames; i++) {\n      Game storage existingGame = games[i];\n      if (existingGame.player2 == address(0) && existingGame.gameState == States.Waiting && !existingGame.is_private) {\n        gameFound = true;\n        gameId = i;\n        break;\n      }\n    }\n\n    if (gameFound) {\n      Game storage existingGame = games[gameId];\n      existingGame.player2 = msg.sender;\n      existingGame.gameState = States.Connected;\n      emit PlayerJoined(gameId, msg.sender);\n    } else {\n        createGame(false);\n    }\n  }\n\n  function verify(bytes32 root, bool result, bytes2 salt, bytes32[] memory proof) private pure returns (bool){\n    \n    bytes32 computedHash = keccak256(abi.encodePacked(result, salt));\n\n    for (uint256 i = 0; i < proof.length; i++) {\n      bytes32 proofElement = proof[i];\n\n      if (computedHash <= proofElement) {\n        // Hash(current computed hash + current element of the proof)\n        computedHash = keccak256(abi.encodePacked(computedHash, proofElement));\n      } else {\n        // Hash(current element of the proof + current computed hash)\n        computedHash = keccak256(abi.encodePacked(proofElement, computedHash));\n      }\n    }\n\n    // Check if the computed hash (root) is equal to the provided root\n    return computedHash == root;\n  }\n\n  function commitBoard(uint256 gameId, bytes32 root) external {\n    require(gameId < totalGames, \"Invalid game ID\");\n    Game storage game = games[gameId];\n\n    require(game.player1 != address(0), \"Game does not exist\");\n    require(game.gameState == States.Ready || game.gameState == States.Connected, \"Game already started\");\n    require(game.player1 == msg.sender || game.player2 == msg.sender, \"Player does not participate to this game\");\n    require(game.merkleRoots[msg.sender] == 0, \"Player already commited their board for this game\");\n\n    game.merkleRoots[msg.sender] = root;\n\n    //Waiting for the commit of the other player\n    if(game.gameState == States.Connected)\n      game.gameState = States.Ready;\n    //Other player already commited their board\n    else if(game.gameState == States.Ready)\n      game.gameState = States.Play;\n    \n    emit PlayerReady(gameId,msg.sender);\n  }\n\n  function currentTurn(uint256 gameId) public view returns (address){\n    require(gameId < totalGames, \"Invalid game ID\");\n    return games[gameId].current_turn;\n  }\n\n  function gameState(uint256 gameId) external view returns (uint8){\n    require(gameId < totalGames, \"Invalid game ID\");\n    if(games[gameId].gameState == States.Waiting)\n      return 0;\n    if(games[gameId].gameState == States.Connected)\n      return 1;\n    if(games[gameId].gameState == States.Ready)\n      return 2;\n    if(games[gameId].gameState == States.Play)\n      return 3;\n\n    return 4;\n  }\n\n  function fire(uint256 gameId, uint8 coordinate) external{\n    require(gameId < totalGames, \"Invalid game ID\");\n    Game storage game = games[gameId];\n    require(game.player1 == msg.sender || game.player2 == msg.sender, \"Player does not participate to this game\");\n    require(game.gameState == States.Play, \"Firing not allowed\");\n    require(game.current_turn == msg.sender,\"Player must wait for their turn\");\n    require(coordinate >= 0 && coordinate < 100, \"Invalid coordinate\");\n    require(!game.waiting_result, \"Waiting for the result of previous shots\");\n    require(!game.shots[msg.sender][coordinate].verified, \"Player already fired to this coordinate\");\n\n    game.waiting_result = true;\n    \n    emit Fire(gameId,msg.sender,coordinate);\n  }\n\n  function shotResult(uint256 gameId, uint8 coordinate, bool result, bytes2 salt, bytes32[] calldata proof) external {\n    require(gameId < totalGames, \"Invalid game ID\");\n    Game storage game = games[gameId];\n    require(game.current_turn != msg.sender, \"Not player turn\");\n    require(game.gameState == States.Play,\"Operation not allowed in this game state\");\n    require(coordinate >= 0 && coordinate < 100, \"Invalid coordinate\");\n    require(game.player1 == msg.sender || game.player2 == msg.sender, \"Player does not participate to this game\");\n    require(game.waiting_result, \"Currently not waiting a result\");\n\n    address attacker = game.current_turn;\n\n    require(!game.shots[attacker][coordinate].verified, \"Proof for this coordinate already provided\");\n\n    if(verify(game.merkleRoots[msg.sender], result, salt, proof)){\n      game.shots[attacker][coordinate].result = result;\n       game.shots[attacker][coordinate].verified = true;\n      if(result)\n        game.scores[attacker]++;\n        \n      game.current_turn = msg.sender;\n      emit ShotResult(gameId,attacker,coordinate,result);\n      checkForWin(gameId, game, attacker);\n    }\n    else{\n      emit CheatingDetected(gameId, msg.sender);\n    }\n    game.waiting_result = false;\n  }\n\n  function checkForWin(uint256 gameId, Game storage game,address winner) private {\n    if(game.scores[winner] == game.winning_score){\n      emit Winner(gameId,winner);\n      game.gameState = States.Over;\n    }\n  }\n}\n",
  "sourcePath": "C:\\Users\\filip\\OneDrive\\Desktop\\Universit\\2 cybersecurity\\P2P and blockchain\\BattleShip\\contracts\\Battleship.sol",
  "compiler": {
    "name": "solc",
    "version": "0.5.16+commit.9c3226ce.Emscripten.clang"
  },
  "schemaVersion": "3.4.13",
  "updatedAt": "2023-08-10T17:56:43.307Z",
  "networkType": "ethereum",
  "devdoc": {
    "methods": {}
  },
  "userdoc": {
    "methods": {}
  }
}