{
  "contractName": "Battleship",
  "abi": [
    {
      "anonymous": false,
      "inputs": [
        {
          "indexed": true,
          "internalType": "uint256",
          "name": "gameId",
          "type": "uint256"
        },
        {
          "indexed": true,
          "internalType": "address",
          "name": "cheater",
          "type": "address"
        }
      ],
      "name": "CheatingDetected",
      "type": "event"
    },
    {
      "anonymous": false,
      "inputs": [
        {
          "indexed": true,
          "internalType": "uint256",
          "name": "gameId",
          "type": "uint256"
        },
        {
          "indexed": true,
          "internalType": "address",
          "name": "victim",
          "type": "address"
        },
        {
          "indexed": false,
          "internalType": "uint8",
          "name": "coordinate",
          "type": "uint8"
        }
      ],
      "name": "Fire",
      "type": "event"
    },
    {
      "anonymous": false,
      "inputs": [
        {
          "indexed": true,
          "internalType": "uint256",
          "name": "gameId",
          "type": "uint256"
        },
        {
          "indexed": false,
          "internalType": "address",
          "name": "player1",
          "type": "address"
        },
        {
          "indexed": false,
          "internalType": "uint256",
          "name": "price",
          "type": "uint256"
        }
      ],
      "name": "GameCreated",
      "type": "event"
    },
    {
      "anonymous": false,
      "inputs": [
        {
          "indexed": true,
          "internalType": "uint256",
          "name": "gameId",
          "type": "uint256"
        },
        {
          "indexed": true,
          "internalType": "address",
          "name": "player",
          "type": "address"
        }
      ],
      "name": "Payed",
      "type": "event"
    },
    {
      "anonymous": false,
      "inputs": [
        {
          "indexed": true,
          "internalType": "uint256",
          "name": "gameId",
          "type": "uint256"
        },
        {
          "indexed": false,
          "internalType": "address",
          "name": "player2",
          "type": "address"
        },
        {
          "indexed": false,
          "internalType": "uint256",
          "name": "price",
          "type": "uint256"
        }
      ],
      "name": "PlayerJoined",
      "type": "event"
    },
    {
      "anonymous": false,
      "inputs": [
        {
          "indexed": true,
          "internalType": "uint256",
          "name": "gameId",
          "type": "uint256"
        },
        {
          "indexed": false,
          "internalType": "address",
          "name": "player",
          "type": "address"
        }
      ],
      "name": "PlayerReady",
      "type": "event"
    },
    {
      "anonymous": false,
      "inputs": [
        {
          "indexed": true,
          "internalType": "uint256",
          "name": "gameId",
          "type": "uint256"
        },
        {
          "indexed": true,
          "internalType": "address",
          "name": "attacker",
          "type": "address"
        },
        {
          "indexed": true,
          "internalType": "uint8",
          "name": "coordinate",
          "type": "uint8"
        },
        {
          "indexed": false,
          "internalType": "bool",
          "name": "result",
          "type": "bool"
        }
      ],
      "name": "ShotResult",
      "type": "event"
    },
    {
      "anonymous": false,
      "inputs": [
        {
          "indexed": true,
          "internalType": "uint256",
          "name": "gameId",
          "type": "uint256"
        },
        {
          "indexed": true,
          "internalType": "address",
          "name": "player",
          "type": "address"
        }
      ],
      "name": "WaitingForBoardValidation",
      "type": "event"
    },
    {
      "anonymous": false,
      "inputs": [
        {
          "indexed": true,
          "internalType": "uint256",
          "name": "gameId",
          "type": "uint256"
        },
        {
          "indexed": true,
          "internalType": "address",
          "name": "winner",
          "type": "address"
        }
      ],
      "name": "Winner",
      "type": "event"
    },
    {
      "constant": true,
      "inputs": [
        {
          "internalType": "uint256",
          "name": "",
          "type": "uint256"
        }
      ],
      "name": "games",
      "outputs": [
        {
          "internalType": "address",
          "name": "player1",
          "type": "address"
        },
        {
          "internalType": "address",
          "name": "player2",
          "type": "address"
        },
        {
          "internalType": "enum Battleship.States",
          "name": "gameState",
          "type": "uint8"
        },
        {
          "internalType": "bool",
          "name": "is_private",
          "type": "bool"
        },
        {
          "internalType": "address",
          "name": "current_turn",
          "type": "address"
        },
        {
          "internalType": "uint8",
          "name": "winning_score",
          "type": "uint8"
        },
        {
          "internalType": "bool",
          "name": "waiting_result",
          "type": "bool"
        },
        {
          "internalType": "address payable",
          "name": "winner",
          "type": "address"
        },
        {
          "internalType": "uint256",
          "name": "balance",
          "type": "uint256"
        },
        {
          "internalType": "uint256",
          "name": "price",
          "type": "uint256"
        },
        {
          "internalType": "uint256",
          "name": "accuse_deadline",
          "type": "uint256"
        },
        {
          "internalType": "address",
          "name": "accuser",
          "type": "address"
        }
      ],
      "payable": false,
      "stateMutability": "view",
      "type": "function"
    },
    {
      "constant": true,
      "inputs": [],
      "name": "totalGames",
      "outputs": [
        {
          "internalType": "uint256",
          "name": "",
          "type": "uint256"
        }
      ],
      "payable": false,
      "stateMutability": "view",
      "type": "function"
    },
    {
      "constant": false,
      "inputs": [
        {
          "internalType": "uint256",
          "name": "price",
          "type": "uint256"
        }
      ],
      "name": "createPrivateGame",
      "outputs": [],
      "payable": false,
      "stateMutability": "nonpayable",
      "type": "function"
    },
    {
      "constant": false,
      "inputs": [
        {
          "internalType": "uint256",
          "name": "gameId",
          "type": "uint256"
        }
      ],
      "name": "joinGame",
      "outputs": [],
      "payable": false,
      "stateMutability": "nonpayable",
      "type": "function"
    },
    {
      "constant": false,
      "inputs": [
        {
          "internalType": "uint256",
          "name": "gameId",
          "type": "uint256"
        }
      ],
      "name": "pay",
      "outputs": [],
      "payable": true,
      "stateMutability": "payable",
      "type": "function"
    },
    {
      "constant": false,
      "inputs": [
        {
          "internalType": "uint256",
          "name": "price",
          "type": "uint256"
        }
      ],
      "name": "joinRandomGame",
      "outputs": [],
      "payable": false,
      "stateMutability": "nonpayable",
      "type": "function"
    },
    {
      "constant": false,
      "inputs": [
        {
          "internalType": "uint256",
          "name": "gameId",
          "type": "uint256"
        }
      ],
      "name": "accusePlayer",
      "outputs": [],
      "payable": false,
      "stateMutability": "nonpayable",
      "type": "function"
    },
    {
      "constant": false,
      "inputs": [
        {
          "internalType": "uint256",
          "name": "gameId",
          "type": "uint256"
        },
        {
          "internalType": "bytes32",
          "name": "root",
          "type": "bytes32"
        }
      ],
      "name": "commitBoard",
      "outputs": [],
      "payable": false,
      "stateMutability": "nonpayable",
      "type": "function"
    },
    {
      "constant": true,
      "inputs": [
        {
          "internalType": "uint256",
          "name": "gameId",
          "type": "uint256"
        }
      ],
      "name": "currentTurn",
      "outputs": [
        {
          "internalType": "address",
          "name": "",
          "type": "address"
        }
      ],
      "payable": false,
      "stateMutability": "view",
      "type": "function"
    },
    {
      "constant": true,
      "inputs": [
        {
          "internalType": "uint256",
          "name": "gameId",
          "type": "uint256"
        }
      ],
      "name": "gameState",
      "outputs": [
        {
          "internalType": "uint8",
          "name": "",
          "type": "uint8"
        }
      ],
      "payable": false,
      "stateMutability": "view",
      "type": "function"
    },
    {
      "constant": false,
      "inputs": [
        {
          "internalType": "uint256",
          "name": "gameId",
          "type": "uint256"
        },
        {
          "internalType": "uint8",
          "name": "coordinate",
          "type": "uint8"
        }
      ],
      "name": "fire",
      "outputs": [],
      "payable": false,
      "stateMutability": "nonpayable",
      "type": "function"
    },
    {
      "constant": false,
      "inputs": [
        {
          "internalType": "uint256",
          "name": "gameId",
          "type": "uint256"
        },
        {
          "internalType": "uint8",
          "name": "coordinate",
          "type": "uint8"
        },
        {
          "internalType": "bool",
          "name": "result",
          "type": "bool"
        },
        {
          "internalType": "uint32",
          "name": "salt",
          "type": "uint32"
        },
        {
          "internalType": "bytes32[]",
          "name": "proof",
          "type": "bytes32[]"
        }
      ],
      "name": "shotResult",
      "outputs": [],
      "payable": false,
      "stateMutability": "nonpayable",
      "type": "function"
    },
    {
      "constant": false,
      "inputs": [
        {
          "internalType": "uint256",
          "name": "gameId",
          "type": "uint256"
        },
        {
          "internalType": "bool[]",
          "name": "result",
          "type": "bool[]"
        }
      ],
      "name": "checkBoardValidity",
      "outputs": [],
      "payable": false,
      "stateMutability": "nonpayable",
      "type": "function"
    }
  ],
  "bytecode": "0x608060405234801561001057600080fd5b5061341b806100206000396000f3fe6080604052600436106100c25760003560e01c8063aac033b91161007f578063c56f5f2e11610059578063c56f5f2e14610487578063dd9b459f146104c2578063e6b9c47c14610591578063efaa55a01461064a576100c2565b8063aac033b9146103cc578063aae38ea814610411578063c290d69114610459576100c2565b8063117a5b90146100c757806318bc9ed61461025b57806322492575146102d65780632c4e591b146103115780634e0e1a3e1461033c57806395c263eb14610391575b600080fd5b3480156100d357600080fd5b50610100600480360360208110156100ea57600080fd5b8101908080359060200190929190505050610685565b604051808d73ffffffffffffffffffffffffffffffffffffffff1673ffffffffffffffffffffffffffffffffffffffff1681526020018c73ffffffffffffffffffffffffffffffffffffffff1673ffffffffffffffffffffffffffffffffffffffff1681526020018b600681111561017457fe5b60ff1681526020018a1515151581526020018973ffffffffffffffffffffffffffffffffffffffff1673ffffffffffffffffffffffffffffffffffffffff1681526020018860ff1660ff168152602001871515151581526020018673ffffffffffffffffffffffffffffffffffffffff1673ffffffffffffffffffffffffffffffffffffffff1681526020018581526020018481526020018381526020018273ffffffffffffffffffffffffffffffffffffffff1673ffffffffffffffffffffffffffffffffffffffff1681526020019c5050505050505050505050505060405180910390f35b34801561026757600080fd5b506102946004803603602081101561027e57600080fd5b81019080803590602001909291905050506107b9565b604051808273ffffffffffffffffffffffffffffffffffffffff1673ffffffffffffffffffffffffffffffffffffffff16815260200191505060405180910390f35b3480156102e257600080fd5b5061030f600480360360208110156102f957600080fd5b810190808035906020019092919050505061086f565b005b34801561031d57600080fd5b5061032661087d565b6040518082815260200191505060405180910390f35b34801561034857600080fd5b506103756004803603602081101561035f57600080fd5b8101908080359060200190929190505050610883565b604051808260ff1660ff16815260200191505060405180910390f35b34801561039d57600080fd5b506103ca600480360360208110156103b457600080fd5b8101908080359060200190929190505050610ac2565b005b3480156103d857600080fd5b5061040f600480360360408110156103ef57600080fd5b810190808035906020019092919080359060200190929190505050610cd0565b005b34801561041d57600080fd5b506104576004803603604081101561043457600080fd5b8101908080359060200190929190803560ff1690602001909291905050506111f3565b005b6104856004803603602081101561046f57600080fd5b81019080803590602001909291905050506117e7565b005b34801561049357600080fd5b506104c0600480360360208110156104aa57600080fd5b8101908080359060200190929190505050611b18565b005b3480156104ce57600080fd5b5061058f600480360360408110156104e557600080fd5b81019080803590602001909291908035906020019064010000000081111561050c57600080fd5b82018360208201111561051e57600080fd5b8035906020019184602083028401116401000000008311171561054057600080fd5b919080806020026020016040519081016040528093929190818152602001838360200280828437600081840152601f19601f820116905080830192505050505050509192919290505050611ef8565b005b34801561059d57600080fd5b50610648600480360360a08110156105b457600080fd5b8101908080359060200190929190803560ff169060200190929190803515159060200190929190803563ffffffff1690602001909291908035906020019064010000000081111561060457600080fd5b82018360208201111561061657600080fd5b8035906020019184602083028401116401000000008311171561063857600080fd5b909192939192939050505061222a565b005b34801561065657600080fd5b506106836004803603602081101561066d57600080fd5b8101908080359060200190929190505050612a2b565b005b60006020528060005260406000206000915090508060000160009054906101000a900473ffffffffffffffffffffffffffffffffffffffff16908060010160009054906101000a900473ffffffffffffffffffffffffffffffffffffffff16908060010160149054906101000a900460ff16908060010160159054906101000a900460ff16908060030160009054906101000a900473ffffffffffffffffffffffffffffffffffffffff16908060050160009054906101000a900460ff16908060070160009054906101000a900460ff16908060070160019054906101000a900473ffffffffffffffffffffffffffffffffffffffff169080600801549080600901549080600a01549080600b0160009054906101000a900473ffffffffffffffffffffffffffffffffffffffff1690508c565b60006001548210610832576040517f08c379a000000000000000000000000000000000000000000000000000000000815260040180806020018281038252600f8152602001807f496e76616c69642067616d65204944000000000000000000000000000000000081525060200191505060405180910390fd5b60008083815260200190815260200160002060030160009054906101000a900473ffffffffffffffffffffffffffffffffffffffff169050919050565b61087a600182612cf9565b50565b60015481565b600060015482106108fc576040517f08c379a000000000000000000000000000000000000000000000000000000000815260040180806020018281038252600f8152602001807f496e76616c69642067616d65204944000000000000000000000000000000000081525060200191505060405180910390fd5b6000600681111561090957fe5b60008084815260200190815260200160002060010160149054906101000a900460ff16600681111561093757fe5b14156109465760009050610abd565b6001600681111561095357fe5b60008084815260200190815260200160002060010160149054906101000a900460ff16600681111561098157fe5b14156109905760019050610abd565b6002600681111561099d57fe5b60008084815260200190815260200160002060010160149054906101000a900460ff1660068111156109cb57fe5b14156109da5760029050610abd565b600360068111156109e757fe5b60008084815260200190815260200160002060010160149054906101000a900460ff166006811115610a1557fe5b1415610a245760039050610abd565b60046006811115610a3157fe5b60008084815260200190815260200160002060010160149054906101000a900460ff166006811115610a5f57fe5b1415610a6e5760049050610abd565b60056006811115610a7b57fe5b60008084815260200190815260200160002060010160149054906101000a900460ff166006811115610aa957fe5b1415610ab85760059050610abd565b600690505b919050565b6000809050600080905060008090505b600154811015610bc35760008060008381526020019081526020016000209050600073ffffffffffffffffffffffffffffffffffffffff168160010160009054906101000a900473ffffffffffffffffffffffffffffffffffffffff1673ffffffffffffffffffffffffffffffffffffffff16148015610b79575060006006811115610b5a57fe5b8160010160149054906101000a900460ff166006811115610b7757fe5b145b8015610b9457508060010160159054906101000a900460ff16155b8015610ba35750848160090154145b15610bb5576001925081935050610bc3565b508080600101915050610ad2565b508015610cbf5760008060008481526020019081526020016000209050338160010160006101000a81548173ffffffffffffffffffffffffffffffffffffffff021916908373ffffffffffffffffffffffffffffffffffffffff16021790555060018160010160146101000a81548160ff02191690836006811115610c4457fe5b0217905550827f03dfbe1fcb4e2d61f3b4a0c93d8f814c92250618b3387f396cc9fc9fafe2c203338360090154604051808373ffffffffffffffffffffffffffffffffffffffff1673ffffffffffffffffffffffffffffffffffffffff1681526020018281526020019250505060405180910390a250610ccb565b610cca600084612cf9565b5b505050565b6001548210610d47576040517f08c379a000000000000000000000000000000000000000000000000000000000815260040180806020018281038252600f8152602001807f496e76616c69642067616d65204944000000000000000000000000000000000081525060200191505060405180910390fd5b60008060008481526020019081526020016000209050600073ffffffffffffffffffffffffffffffffffffffff168160000160009054906101000a900473ffffffffffffffffffffffffffffffffffffffff1673ffffffffffffffffffffffffffffffffffffffff161415610e24576040517f08c379a00000000000000000000000000000000000000000000000000000000081526004018080602001828103825260138152602001807f47616d6520646f6573206e6f742065786973740000000000000000000000000081525060200191505060405180910390fd5b60036006811115610e3157fe5b8160010160149054906101000a900460ff166006811115610e4e57fe5b1480610e81575060026006811115610e6257fe5b8160010160149054906101000a900460ff166006811115610e7f57fe5b145b610ef3576040517f08c379a00000000000000000000000000000000000000000000000000000000081526004018080602001828103825260148152602001807f47616d6520616c7265616479207374617274656400000000000000000000000081525060200191505060405180910390fd5b3373ffffffffffffffffffffffffffffffffffffffff168160000160009054906101000a900473ffffffffffffffffffffffffffffffffffffffff1673ffffffffffffffffffffffffffffffffffffffff161480610fa057503373ffffffffffffffffffffffffffffffffffffffff168160010160009054906101000a900473ffffffffffffffffffffffffffffffffffffffff1673ffffffffffffffffffffffffffffffffffffffff16145b610ff5576040517f08c379a00000000000000000000000000000000000000000000000000000000081526004018080602001828103825260288152602001806132526028913960400191505060405180910390fd5b6000801b8160020160003373ffffffffffffffffffffffffffffffffffffffff1673ffffffffffffffffffffffffffffffffffffffff1681526020019081526020016000205414611091576040517f08c379a00000000000000000000000000000000000000000000000000000000081526004018080602001828103825260318152602001806132ec6031913960400191505060405180910390fd5b818160020160003373ffffffffffffffffffffffffffffffffffffffff1673ffffffffffffffffffffffffffffffffffffffff16815260200190815260200160002081905550600260068111156110e457fe5b8160010160149054906101000a900460ff16600681111561110157fe5b14156111325760038160010160146101000a81548160ff0219169083600681111561112857fe5b021790555061118a565b6003600681111561113f57fe5b8160010160149054906101000a900460ff16600681111561115c57fe5b14156111895760048160010160146101000a81548160ff0219169083600681111561118357fe5b02179055505b5b827f6ca87004dea1dbeec045b0dc2f98a5c0375f003f7948b77a694ebd6f22682a8033604051808273ffffffffffffffffffffffffffffffffffffffff1673ffffffffffffffffffffffffffffffffffffffff16815260200191505060405180910390a2505050565b600154821061126a576040517f08c379a000000000000000000000000000000000000000000000000000000000815260040180806020018281038252600f8152602001807f496e76616c69642067616d65204944000000000000000000000000000000000081525060200191505060405180910390fd5b600080600084815260200190815260200160002090503373ffffffffffffffffffffffffffffffffffffffff168160000160009054906101000a900473ffffffffffffffffffffffffffffffffffffffff1673ffffffffffffffffffffffffffffffffffffffff16148061132d57503373ffffffffffffffffffffffffffffffffffffffff168160010160009054906101000a900473ffffffffffffffffffffffffffffffffffffffff1673ffffffffffffffffffffffffffffffffffffffff16145b611382576040517f08c379a00000000000000000000000000000000000000000000000000000000081526004018080602001828103825260288152602001806132526028913960400191505060405180910390fd5b6004600681111561138f57fe5b8160010160149054906101000a900460ff1660068111156113ac57fe5b1461141f576040517f08c379a00000000000000000000000000000000000000000000000000000000081526004018080602001828103825260128152602001807f466972696e67206e6f7420616c6c6f776564000000000000000000000000000081525060200191505060405180910390fd5b3373ffffffffffffffffffffffffffffffffffffffff168160030160009054906101000a900473ffffffffffffffffffffffffffffffffffffffff1673ffffffffffffffffffffffffffffffffffffffff16146114e4576040517f08c379a000000000000000000000000000000000000000000000000000000000815260040180806020018281038252601f8152602001807f506c61796572206d757374207761697420666f72207468656972207475726e0081525060200191505060405180910390fd5b60008260ff16101580156114fb575060648260ff16105b61156d576040517f08c379a00000000000000000000000000000000000000000000000000000000081526004018080602001828103825260128152602001807f496e76616c696420636f6f7264696e617465000000000000000000000000000081525060200191505060405180910390fd5b8060070160009054906101000a900460ff16156115d5576040517f08c379a000000000000000000000000000000000000000000000000000000000815260040180806020018281038252602881526020018061336a6028913960400191505060405180910390fd5b8060060160003373ffffffffffffffffffffffffffffffffffffffff1673ffffffffffffffffffffffffffffffffffffffff16815260200190815260200160002060008360ff1660ff16815260200190815260200160002060000160019054906101000a900460ff1615611694576040517f08c379a000000000000000000000000000000000000000000000000000000000815260040180806020018281038252602781526020018061327a6027913960400191505060405180910390fd5b61169d83612e85565b60018160070160006101000a81548160ff02191690831515021790555060008160000160009054906101000a900473ffffffffffffffffffffffffffffffffffffffff1673ffffffffffffffffffffffffffffffffffffffff168260030160009054906101000a900473ffffffffffffffffffffffffffffffffffffffff1673ffffffffffffffffffffffffffffffffffffffff161415611764578160010160009054906101000a900473ffffffffffffffffffffffffffffffffffffffff16905061178c565b8160000160009054906101000a900473ffffffffffffffffffffffffffffffffffffffff1690505b8073ffffffffffffffffffffffffffffffffffffffff16847fae19dfa7e871b72e1c5e5a67d39988b7d0b642d25ef898f980d245ee2db2decc85604051808260ff1660ff16815260200191505060405180910390a350505050565b600154811061185e576040517f08c379a000000000000000000000000000000000000000000000000000000000815260040180806020018281038252600f8152602001807f496e76616c69642067616d65204944000000000000000000000000000000000081525060200191505060405180910390fd5b600080600083815260200190815260200160002090506001600681111561188157fe5b8160010160149054906101000a900460ff16600681111561189e57fe5b14611911576040517f08c379a000000000000000000000000000000000000000000000000000000000815260040180806020018281038252600d8152602001807f47616d65206e6f742066756c6c0000000000000000000000000000000000000081525060200191505060405180910390fd5b3481600901541461198a576040517f08c379a00000000000000000000000000000000000000000000000000000000081526004018080602001828103825260178152602001807f506c6561736520706179207468652066756c6c2066656500000000000000000081525060200191505060405180910390fd5b3373ffffffffffffffffffffffffffffffffffffffff168160000160009054906101000a900473ffffffffffffffffffffffffffffffffffffffff1673ffffffffffffffffffffffffffffffffffffffff161480611a3757503373ffffffffffffffffffffffffffffffffffffffff168160010160009054906101000a900473ffffffffffffffffffffffffffffffffffffffff1673ffffffffffffffffffffffffffffffffffffffff16145b611a8c576040517f08c379a00000000000000000000000000000000000000000000000000000000081526004018080602001828103825260288152602001806132526028913960400191505060405180910390fd5b34816008016000828254019250508190555034816008015414611ad05760028160010160146101000a81548160ff02191690836006811115611aca57fe5b02179055505b3373ffffffffffffffffffffffffffffffffffffffff16827f428c3067a9718a089b4505e91c5cba59df7cf5cd6c45b77d879142ca748f7fd360405160405180910390a35050565b6001548110611b8f576040517f08c379a000000000000000000000000000000000000000000000000000000000815260040180806020018281038252600f8152602001807f496e76616c69642067616d65204944000000000000000000000000000000000081525060200191505060405180910390fd5b600080600083815260200190815260200160002090503373ffffffffffffffffffffffffffffffffffffffff168160000160009054906101000a900473ffffffffffffffffffffffffffffffffffffffff1673ffffffffffffffffffffffffffffffffffffffff161480611c5257503373ffffffffffffffffffffffffffffffffffffffff168160010160009054906101000a900473ffffffffffffffffffffffffffffffffffffffff1673ffffffffffffffffffffffffffffffffffffffff16145b611ca7576040517f08c379a00000000000000000000000000000000000000000000000000000000081526004018080602001828103825260288152602001806132526028913960400191505060405180910390fd5b60046006811115611cb457fe5b8160010160149054906101000a900460ff166006811115611cd157fe5b14611d27576040517f08c379a00000000000000000000000000000000000000000000000000000000081526004018080602001828103825260218152602001806132a16021913960400191505060405180910390fd5b600073ffffffffffffffffffffffffffffffffffffffff1681600b0160009054906101000a900473ffffffffffffffffffffffffffffffffffffffff1673ffffffffffffffffffffffffffffffffffffffff161480611dd557503373ffffffffffffffffffffffffffffffffffffffff1681600b0160009054906101000a900473ffffffffffffffffffffffffffffffffffffffff1673ffffffffffffffffffffffffffffffffffffffff16145b611e2a576040517f08c379a000000000000000000000000000000000000000000000000000000000815260040180806020018281038252602d8152602001806133ba602d913960400191505060405180910390fd5b600073ffffffffffffffffffffffffffffffffffffffff1681600b0160009054906101000a900473ffffffffffffffffffffffffffffffffffffffff1673ffffffffffffffffffffffffffffffffffffffff161415611ed8573381600b0160006101000a81548173ffffffffffffffffffffffffffffffffffffffff021916908373ffffffffffffffffffffffffffffffffffffffff1602179055506005430181600a018190555050611ef5565b4381600a015410611ee95750611ef5565b611ef38233612eed565b505b50565b6001548210611f6f576040517f08c379a000000000000000000000000000000000000000000000000000000000815260040180806020018281038252600f8152602001807f496e76616c69642067616d65204944000000000000000000000000000000000081525060200191505060405180910390fd5b600080600084815260200190815260200160002090503373ffffffffffffffffffffffffffffffffffffffff168160070160019054906101000a900473ffffffffffffffffffffffffffffffffffffffff1673ffffffffffffffffffffffffffffffffffffffff161461202d576040517f08c379a000000000000000000000000000000000000000000000000000000000815260040180806020018281038252602581526020018061331d6025913960400191505060405180910390fd5b6005600681111561203a57fe5b8160010160149054906101000a900460ff16600681111561205757fe5b146120ad576040517f08c379a00000000000000000000000000000000000000000000000000000000081526004018080602001828103825260288152602001806133426028913960400191505060405180910390fd5b600080905060008090505b83518110156120fa57600115158482815181106120d157fe5b60200260200101511515146120e657816120eb565b600182015b915080806001019150506120b8565b508160050160009054906101000a900460ff1660ff168160ff161015612219573373ffffffffffffffffffffffffffffffffffffffff16847f153b0f7771c671c1687a3dec3ae2d4fea7d83e189ac5562124ec923f559efe4760405160405180910390a360008260000160009054906101000a900473ffffffffffffffffffffffffffffffffffffffff1673ffffffffffffffffffffffffffffffffffffffff163373ffffffffffffffffffffffffffffffffffffffff16146121e1578260000160009054906101000a900473ffffffffffffffffffffffffffffffffffffffff16612207565b8260010160009054906101000a900473ffffffffffffffffffffffffffffffffffffffff165b90506122138582612eed565b50612224565b6122238433612eed565b5b50505050565b60015486106122a1576040517f08c379a000000000000000000000000000000000000000000000000000000000815260040180806020018281038252600f8152602001807f496e76616c69642067616d65204944000000000000000000000000000000000081525060200191505060405180910390fd5b600080600088815260200190815260200160002090503373ffffffffffffffffffffffffffffffffffffffff168160030160009054906101000a900473ffffffffffffffffffffffffffffffffffffffff1673ffffffffffffffffffffffffffffffffffffffff16141561237d576040517f08c379a000000000000000000000000000000000000000000000000000000000815260040180806020018281038252600f8152602001807f4e6f7420706c61796572207475726e000000000000000000000000000000000081525060200191505060405180910390fd5b6004600681111561238a57fe5b8160010160149054906101000a900460ff1660068111156123a757fe5b146123fd576040517f08c379a00000000000000000000000000000000000000000000000000000000081526004018080602001828103825260288152602001806133926028913960400191505060405180910390fd5b60008660ff1610158015612414575060648660ff16105b612486576040517f08c379a00000000000000000000000000000000000000000000000000000000081526004018080602001828103825260128152602001807f496e76616c696420636f6f7264696e617465000000000000000000000000000081525060200191505060405180910390fd5b3373ffffffffffffffffffffffffffffffffffffffff168160000160009054906101000a900473ffffffffffffffffffffffffffffffffffffffff1673ffffffffffffffffffffffffffffffffffffffff16148061253357503373ffffffffffffffffffffffffffffffffffffffff168160010160009054906101000a900473ffffffffffffffffffffffffffffffffffffffff1673ffffffffffffffffffffffffffffffffffffffff16145b612588576040517f08c379a00000000000000000000000000000000000000000000000000000000081526004018080602001828103825260288152602001806132526028913960400191505060405180910390fd5b8060070160009054906101000a900460ff1661260c576040517f08c379a000000000000000000000000000000000000000000000000000000000815260040180806020018281038252601e8152602001807f43757272656e746c79206e6f742077616974696e67206120726573756c74000081525060200191505060405180910390fd5b60008160030160009054906101000a900473ffffffffffffffffffffffffffffffffffffffff1690508160060160008273ffffffffffffffffffffffffffffffffffffffff1673ffffffffffffffffffffffffffffffffffffffff16815260200190815260200160002060008860ff1660ff16815260200190815260200160002060000160019054906101000a900460ff16156126f4576040517f08c379a000000000000000000000000000000000000000000000000000000000815260040180806020018281038252602a8152602001806132c2602a913960400191505060405180910390fd5b6127828260020160003373ffffffffffffffffffffffffffffffffffffffff1673ffffffffffffffffffffffffffffffffffffffff168152602001908152602001600020548787878780806020026020016040519081016040528093929190818152602001838360200280828437600081840152601f19601f82011690508083019250505050505050613024565b1561298f57858260060160008373ffffffffffffffffffffffffffffffffffffffff1673ffffffffffffffffffffffffffffffffffffffff16815260200190815260200160002060008960ff1660ff16815260200190815260200160002060000160006101000a81548160ff02191690831515021790555060018260060160008373ffffffffffffffffffffffffffffffffffffffff1673ffffffffffffffffffffffffffffffffffffffff16815260200190815260200160002060008960ff1660ff16815260200190815260200160002060000160016101000a81548160ff02191690831515021790555085156128e6578160040160008273ffffffffffffffffffffffffffffffffffffffff1673ffffffffffffffffffffffffffffffffffffffff168152602001908152602001600020600081819054906101000a900460ff168092919060010191906101000a81548160ff021916908360ff160217905550505b338260030160006101000a81548173ffffffffffffffffffffffffffffffffffffffff021916908373ffffffffffffffffffffffffffffffffffffffff1602179055508660ff168173ffffffffffffffffffffffffffffffffffffffff16897f643d22060fdd6452e9d00cb46911d684f5f21a0792184e2980107b70f44e50c989604051808215151515815260200191505060405180910390a461298a888261311b565b612a04565b3373ffffffffffffffffffffffffffffffffffffffff16887f153b0f7771c671c1687a3dec3ae2d4fea7d83e189ac5562124ec923f559efe4760405160405180910390a360058260010160146101000a81548160ff021916908360068111156129f457fe5b0217905550612a038882612eed565b5b60008260070160006101000a81548160ff0219169083151502179055505050505050505050565b6001548110612aa2576040517f08c379a000000000000000000000000000000000000000000000000000000000815260040180806020018281038252600f8152602001807f496e76616c69642067616d65204944000000000000000000000000000000000081525060200191505060405180910390fd5b60008060008381526020019081526020016000209050600073ffffffffffffffffffffffffffffffffffffffff168160000160009054906101000a900473ffffffffffffffffffffffffffffffffffffffff1673ffffffffffffffffffffffffffffffffffffffff161415612b7f576040517f08c379a00000000000000000000000000000000000000000000000000000000081526004018080602001828103825260138152602001807f47616d6520646f6573206e6f742065786973740000000000000000000000000081525060200191505060405180910390fd5b60006006811115612b8c57fe5b8160010160149054906101000a900460ff166006811115612ba957fe5b14612c1c576040517f08c379a00000000000000000000000000000000000000000000000000000000081526004018080602001828103825260148152602001807f47616d6520616c7265616479207374617274656400000000000000000000000081525060200191505060405180910390fd5b338160010160006101000a81548173ffffffffffffffffffffffffffffffffffffffff021916908373ffffffffffffffffffffffffffffffffffffffff16021790555060018160010160146101000a81548160ff02191690836006811115612c8057fe5b0217905550817f03dfbe1fcb4e2d61f3b4a0c93d8f814c92250618b3387f396cc9fc9fafe2c203338360090154604051808373ffffffffffffffffffffffffffffffffffffffff1673ffffffffffffffffffffffffffffffffffffffff1681526020018281526020019250505060405180910390a25050565b60006001600081548092919060010191905055905060008060008381526020019081526020016000209050338160000160006101000a81548173ffffffffffffffffffffffffffffffffffffffff021916908373ffffffffffffffffffffffffffffffffffffffff16021790555060008160010160146101000a81548160ff02191690836006811115612d8857fe5b0217905550838160010160156101000a81548160ff021916908315150217905550338160030160006101000a81548173ffffffffffffffffffffffffffffffffffffffff021916908373ffffffffffffffffffffffffffffffffffffffff16021790555060118160050160006101000a81548160ff021916908360ff160217905550828160090181905550817f7dfb67e9ff596fca4da65c7eedb128cd1aac553af54b3c0cb733625a2480d8bd3385604051808373ffffffffffffffffffffffffffffffffffffffff1673ffffffffffffffffffffffffffffffffffffffff1681526020018281526020019250505060405180910390a250505050565b60008060008381526020019081526020016000209050600081600b0160006101000a81548173ffffffffffffffffffffffffffffffffffffffff021916908373ffffffffffffffffffffffffffffffffffffffff160217905550600081600a01819055505050565b600080600084815260200190815260200160002090508173ffffffffffffffffffffffffffffffffffffffff16837f6b5936f5be80114e7a91daf84ba4886ece975aaffac48c9609cfa022d74a8a7d60405160405180910390a3818160070160016101000a81548173ffffffffffffffffffffffffffffffffffffffff021916908373ffffffffffffffffffffffffffffffffffffffff16021790555060068160010160146101000a81548160ff02191690836006811115612fab57fe5b02179055508060070160019054906101000a900473ffffffffffffffffffffffffffffffffffffffff1673ffffffffffffffffffffffffffffffffffffffff166108fc82600801549081150290604051600060405180830381858888f1935050505015801561301e573d6000803e3d6000fd5b50505050565b600080848460405160200180831515151581526020018263ffffffff1663ffffffff1681526020019250505060405160208183030381529060405280519060200120905060008090505b835181101561310c57600084828151811061308557fe5b602002602001015190508083116130cc57828160405160200180838152602001828152602001925050506040516020818303038152906040528051906020012092506130fe565b808360405160200180838152602001828152602001925050506040516020818303038152906040528051906020012092505b50808060010191505061306e565b50858114915050949350505050565b600080600084815260200190815260200160002090508060050160009054906101000a900460ff1660ff168160040160008473ffffffffffffffffffffffffffffffffffffffff1673ffffffffffffffffffffffffffffffffffffffff16815260200190815260200160002060009054906101000a900460ff1660ff16141561324c57818160070160016101000a81548173ffffffffffffffffffffffffffffffffffffffff021916908373ffffffffffffffffffffffffffffffffffffffff1602179055508173ffffffffffffffffffffffffffffffffffffffff16837f118ed56153ea4efd5b70a58c843210713faba6fa9af88c6d9fb6d4adce1ccb0360405160405180910390a360058160010160146101000a81548160ff0219169083600681111561324657fe5b02179055505b50505056fe506c6179657220646f6573206e6f7420706172746963697061746520746f20746869732067616d65506c6179657220616c726561647920666972656420746f207468697320636f6f7264696e617465416363757365206e6f7420706f737369626c6520696e207468697320706861736550726f6f6620666f72207468697320636f6f7264696e61746520616c72656164792070726f7669646564506c6179657220616c726561647920636f6d6d6974656420746865697220626f61726420666f7220746869732067616d65506c61796572206973206e6f74207468652077696e6e6572206f6620746865206d61746368426f6172642076616c6964697479206e6f7420636865636b656420696e207468697320706861736557616974696e6720666f722074686520726573756c74206f662070726576696f75732073686f74734f7065726174696f6e206e6f7420616c6c6f77656420696e20746869732067616d652073746174654d7573742070726f7669646520616e20616e7377657220746f207468652070726576696f757320616363757365a265627a7a7231582068eda71161a272c22806ccaf3ea5d9e8a01f4a3c834747e097d795b452a86ce464736f6c63430005100032",
  "source": "// SPDX-License-Identifier: MIT \r\npragma solidity >=0.5.0 <0.9.0;\r\n\r\ncontract Battleship {\r\n  enum States{\r\n    Waiting,\r\n    Connected,\r\n    Payed,\r\n    Ready,\r\n    Play,\r\n    Over,\r\n    Rewarded\r\n  }\r\n  \r\n  struct Shot{\r\n    bool result;\r\n    bool verified;\r\n  }\r\n\r\n  struct Game {\r\n    address player1;\r\n    address player2;\r\n    States gameState;\r\n    bool is_private;\r\n    mapping(address => bytes32) merkleRoots;\r\n    address current_turn;\r\n    mapping(address => uint8) scores;\r\n    uint8 winning_score;\r\n    mapping(address => mapping(uint8 => Shot)) shots;\r\n    bool waiting_result;\r\n    address payable winner;\r\n    uint256 balance;\r\n    uint256 price;\r\n    uint256 accuse_deadline;\r\n    address accuser;\r\n  }\r\n\r\n  mapping(uint256 => Game) public games;\r\n  uint256 public totalGames;\r\n\r\n  event GameCreated(uint256 indexed gameId, address player1, uint256 price);\r\n  event PlayerJoined(uint256 indexed gameId, address player2, uint256 price);\r\n  event PlayerReady(uint256 indexed gameId, address player);\r\n  event Fire(uint256 indexed gameId, address indexed  victim, uint8 coordinate);\r\n  event ShotResult(uint256 indexed gameId, address indexed attacker, uint8 indexed coordinate, bool result);\r\n  event CheatingDetected(uint256 indexed gameId, address indexed cheater);\r\n  event WaitingForBoardValidation( uint256 indexed gameId, address indexed player);\r\n  event Winner(uint256 indexed gameId, address indexed winner);\r\n  event Payed(uint256 indexed gameId, address indexed player);\r\n\r\n  function createGame(bool priv, uint256 price) private{\r\n    uint256 gameId = totalGames++;\r\n    Game storage newGame = games[gameId];\r\n    newGame.player1 = msg.sender;\r\n    newGame.gameState = States.Waiting;\r\n    newGame.is_private = priv;\r\n    newGame.current_turn = msg.sender;\r\n    newGame.winning_score = 17;\r\n    newGame.price = price;\r\n    emit GameCreated(gameId, msg.sender, price);\r\n  }\r\n\r\n  function createPrivateGame(uint256 price) external{\r\n    createGame(true,price);\r\n  }\r\n\r\n  function joinGame(uint256 gameId) external{\r\n    require(gameId < totalGames, \"Invalid game ID\");\r\n    Game storage existingGame = games[gameId];\r\n\r\n    require(existingGame.player1 != address(0), \"Game does not exist\");\r\n    require(existingGame.gameState == States.Waiting,\"Game already started\");\r\n\r\n    existingGame.player2 = msg.sender;\r\n    existingGame.gameState = States.Connected;\r\n    emit PlayerJoined(gameId, msg.sender, existingGame.price);\r\n  }\r\n\r\n  function pay(uint256 gameId) public payable{\r\n\r\n    require(gameId < totalGames, \"Invalid game ID\");\r\n    Game storage game = games[gameId];\r\n    require(game.gameState == States.Connected, \"Game not full\");\r\n    require(game.price == msg.value, \"Please pay the full fee\");\r\n    require(game.player1 == msg.sender || game.player2 == msg.sender, \"Player does not participate to this game\");\r\n    game.balance += msg.value;\r\n    if(game.balance != msg.value)\r\n      game.gameState = States.Payed;\r\n    emit Payed(gameId, msg.sender);\r\n  }\r\n\r\n  function joinRandomGame(uint256 price) external{\r\n    uint256 gameId = 0;\r\n    bool gameFound = false;\r\n\r\n    for(uint256 i = 0; i < totalGames; i++) {\r\n      Game storage existingGame = games[i];\r\n      if (existingGame.player2 == address(0) && existingGame.gameState == States.Waiting && \r\n          !existingGame.is_private && existingGame.price == price) {\r\n        gameFound = true;\r\n        gameId = i;\r\n        break;\r\n      }\r\n    }\r\n\r\n    if (gameFound) {\r\n      Game storage existingGame = games[gameId];\r\n      existingGame.player2 = msg.sender;\r\n      existingGame.gameState = States.Connected;\r\n      emit PlayerJoined(gameId, msg.sender,existingGame.price);\r\n    } else {\r\n        createGame(false,price);\r\n    }\r\n  }\r\n\r\n  function accusePlayer(uint256 gameId) external {\r\n    require(gameId < totalGames, \"Invalid game ID\");\r\n    Game storage game = games[gameId];\r\n    require(game.player1 == msg.sender || game.player2 == msg.sender, \"Player does not participate to this game\");\r\n    require(game.gameState == States.Play, \"Accuse not possible in this phase\");\r\n    require(game.accuser == address(0) || game.accuser == msg.sender, \"Must provide an answer to the previous accuse\");\r\n    \r\n    if(game.accuser == address(0)){\r\n      game.accuser = msg.sender;\r\n      game.accuse_deadline = block.number + 5;\r\n      return;\r\n    }\r\n    if(game.accuse_deadline >= block.number)\r\n      return;\r\n    \r\n    declareWinner(gameId, msg.sender);\r\n  }\r\n\r\n  function respondAccuse(uint256 gameId) private{\r\n    Game storage game = games[gameId];\r\n    game.accuser = address(0);\r\n    game.accuse_deadline = 0;\r\n  }\r\n\r\n  function commitBoard(uint256 gameId, bytes32 root) external {\r\n    require(gameId < totalGames, \"Invalid game ID\");\r\n    Game storage game = games[gameId];\r\n\r\n    require(game.player1 != address(0), \"Game does not exist\");\r\n    require(game.gameState == States.Ready || game.gameState == States.Payed, \"Game already started\");\r\n    require(game.player1 == msg.sender || game.player2 == msg.sender, \"Player does not participate to this game\");\r\n    require(game.merkleRoots[msg.sender] == 0, \"Player already commited their board for this game\");\r\n\r\n    game.merkleRoots[msg.sender] = root;\r\n\r\n    //Waiting for the commit of the other player\r\n    if(game.gameState == States.Payed)\r\n      game.gameState = States.Ready;\r\n    //Other player already commited their board\r\n    else if(game.gameState == States.Ready)\r\n      game.gameState = States.Play;\r\n    \r\n    emit PlayerReady(gameId,msg.sender);\r\n  }\r\n\r\n  function currentTurn(uint256 gameId) public view returns (address){\r\n    require(gameId < totalGames, \"Invalid game ID\");\r\n    return games[gameId].current_turn;\r\n  }\r\n\r\n  function gameState(uint256 gameId) external view returns (uint8){\r\n    require(gameId < totalGames, \"Invalid game ID\");\r\n    if(games[gameId].gameState == States.Waiting)\r\n      return 0;\r\n    if(games[gameId].gameState == States.Connected)\r\n      return 1;\r\n    if(games[gameId].gameState == States.Payed)\r\n      return 2;\r\n    if(games[gameId].gameState == States.Ready)\r\n      return 3;\r\n    if(games[gameId].gameState == States.Play)\r\n      return 4;\r\n    if(games[gameId].gameState == States.Over)\r\n      return 5;\r\n    return 6;\r\n  }\r\n\r\n  function fire(uint256 gameId, uint8 coordinate) external{\r\n    require(gameId < totalGames, \"Invalid game ID\");\r\n    Game storage game = games[gameId];\r\n    require(game.player1 == msg.sender || game.player2 == msg.sender, \"Player does not participate to this game\");\r\n    require(game.gameState == States.Play, \"Firing not allowed\");\r\n    require(game.current_turn == msg.sender,\"Player must wait for their turn\");\r\n    require(coordinate >= 0 && coordinate < 100, \"Invalid coordinate\");\r\n    require(!game.waiting_result, \"Waiting for the result of previous shots\");\r\n    require(!game.shots[msg.sender][coordinate].verified, \"Player already fired to this coordinate\");\r\n\r\n    respondAccuse(gameId);\r\n    game.waiting_result = true;\r\n    address victim;\r\n    if(game.current_turn == game.player1)\r\n      victim = game.player2;\r\n    else \r\n      victim = game.player1;\r\n    \r\n    emit Fire(gameId,victim,coordinate);\r\n  }\r\n\r\n  function shotResult(uint256 gameId, uint8 coordinate, bool result, uint32 salt, bytes32[] calldata proof) external {\r\n    require(gameId < totalGames, \"Invalid game ID\");\r\n    Game storage game = games[gameId];\r\n    require(game.current_turn != msg.sender, \"Not player turn\");\r\n    require(game.gameState == States.Play,\"Operation not allowed in this game state\");\r\n    require(coordinate >= 0 && coordinate < 100, \"Invalid coordinate\");\r\n    require(game.player1 == msg.sender || game.player2 == msg.sender, \"Player does not participate to this game\");\r\n    require(game.waiting_result, \"Currently not waiting a result\");\r\n\r\n    address attacker = game.current_turn;\r\n\r\n    require(!game.shots[attacker][coordinate].verified, \"Proof for this coordinate already provided\");\r\n\r\n    if(verify(game.merkleRoots[msg.sender], result, salt, proof)){\r\n      game.shots[attacker][coordinate].result = result;\r\n       game.shots[attacker][coordinate].verified = true;\r\n      if(result)\r\n        game.scores[attacker]++;\r\n        \r\n      game.current_turn = msg.sender;\r\n      emit ShotResult(gameId,attacker,coordinate,result);\r\n      checkForWin(gameId, attacker);\r\n    }\r\n    else{\r\n      emit CheatingDetected(gameId, msg.sender);\r\n      game.gameState = States.Over;\r\n      declareWinner(gameId, attacker);\r\n    }\r\n    game.waiting_result = false;\r\n  }\r\n\r\nfunction verify(bytes32 root, bool result, uint32 salt, bytes32[] memory proof) private pure returns (bool){\r\n    \r\n    bytes32 computedHash = keccak256(abi.encode(result, salt));\r\n\r\n    for (uint256 i = 0; i < proof.length; i++) {\r\n      bytes32 proofElement = proof[i];\r\n\r\n      if (computedHash <= proofElement) {\r\n        // Hash(current computed hash + current element of the proof)\r\n        computedHash = keccak256(abi.encodePacked(computedHash, proofElement));\r\n      } else {\r\n        // Hash(current element of the proof + current computed hash)\r\n        computedHash = keccak256(abi.encodePacked(proofElement, computedHash));\r\n      }\r\n    }\r\n\r\n    // Check if the computed hash (root) is equal to the provided root\r\n    return computedHash == root;\r\n\r\n  }\r\n\r\n  function checkBoardValidity(uint256 gameId, bool [] memory result) public{\r\n\r\n    require(gameId < totalGames, \"Invalid game ID\");\r\n    Game storage game = games[gameId];\r\n    require(game.winner == msg.sender, \"Player is not the winner of the match\");\r\n    require(game.gameState == States.Over, \"Board validity not checked in this phase\");\r\n\r\n    uint8 placed_ships = 0;\r\n    for(uint256 i = 0; i < result.length; i++)\r\n      placed_ships = (result[i] == true? placed_ships+1 : placed_ships);\r\n\r\n    if(placed_ships < game.winning_score){\r\n      emit CheatingDetected(gameId, msg.sender);\r\n      address winner = (msg.sender == game.player1? game.player2 : game.player1);\r\n      declareWinner(gameId, winner);\r\n    }\r\n    else{\r\n      declareWinner(gameId, msg.sender);\r\n    }\r\n  }\r\n\r\n  function checkForWin(uint256 gameId,address player) private {\r\n\r\n    Game storage game=games[gameId];\r\n    if(game.scores[player] == game.winning_score){\r\n      game.winner = address(uint160(player));\r\n      emit WaitingForBoardValidation(gameId, player);\r\n      game.gameState = States.Over;\r\n    }\r\n  }\r\n\r\n  function declareWinner(uint256 gameId, address winner) private{\r\n    Game storage game=games[gameId];\r\n    emit Winner(gameId, winner);\r\n    game.winner = address(uint160(winner));\r\n    game.gameState = States.Rewarded;\r\n    game.winner.transfer(game.balance);\r\n  }\r\n}\r\n",
  "sourcePath": "C:\\Users\\filip\\OneDrive\\Desktop\\Universit\\2 cybersecurity\\P2P and blockchain\\BattleShip\\contracts\\Battleship.sol",
  "compiler": {
    "name": "solc",
    "version": "0.5.16+commit.9c3226ce.Emscripten.clang"
  },
  "schemaVersion": "3.4.13",
  "updatedAt": "2023-08-18T03:29:18.501Z",
  "networkType": "ethereum",
  "devdoc": {
    "methods": {}
  },
  "userdoc": {
    "methods": {}
  }
}