{
  "contractName": "Battleship",
  "abi": [
    {
      "anonymous": false,
      "inputs": [
        {
          "indexed": true,
          "internalType": "uint256",
          "name": "gameId",
          "type": "uint256"
        },
        {
          "indexed": true,
          "internalType": "address",
          "name": "cheater",
          "type": "address"
        }
      ],
      "name": "CheatingDetected",
      "type": "event"
    },
    {
      "anonymous": false,
      "inputs": [
        {
          "indexed": true,
          "internalType": "uint256",
          "name": "gameId",
          "type": "uint256"
        },
        {
          "indexed": true,
          "internalType": "address",
          "name": "victim",
          "type": "address"
        },
        {
          "indexed": false,
          "internalType": "uint8",
          "name": "coordinate",
          "type": "uint8"
        }
      ],
      "name": "Fire",
      "type": "event"
    },
    {
      "anonymous": false,
      "inputs": [
        {
          "indexed": true,
          "internalType": "uint256",
          "name": "gameId",
          "type": "uint256"
        },
        {
          "indexed": false,
          "internalType": "address",
          "name": "player1",
          "type": "address"
        }
      ],
      "name": "GameCreated",
      "type": "event"
    },
    {
      "anonymous": false,
      "inputs": [
        {
          "indexed": true,
          "internalType": "uint256",
          "name": "gameId",
          "type": "uint256"
        },
        {
          "indexed": false,
          "internalType": "address",
          "name": "player2",
          "type": "address"
        }
      ],
      "name": "PlayerJoined",
      "type": "event"
    },
    {
      "anonymous": false,
      "inputs": [
        {
          "indexed": true,
          "internalType": "uint256",
          "name": "gameId",
          "type": "uint256"
        },
        {
          "indexed": false,
          "internalType": "address",
          "name": "player",
          "type": "address"
        }
      ],
      "name": "PlayerReady",
      "type": "event"
    },
    {
      "anonymous": false,
      "inputs": [
        {
          "indexed": true,
          "internalType": "uint256",
          "name": "gameId",
          "type": "uint256"
        },
        {
          "indexed": true,
          "internalType": "address",
          "name": "attacker",
          "type": "address"
        },
        {
          "indexed": true,
          "internalType": "uint8",
          "name": "coordinate",
          "type": "uint8"
        },
        {
          "indexed": false,
          "internalType": "bool",
          "name": "result",
          "type": "bool"
        }
      ],
      "name": "ShotResult",
      "type": "event"
    },
    {
      "anonymous": false,
      "inputs": [
        {
          "indexed": true,
          "internalType": "uint256",
          "name": "gameId",
          "type": "uint256"
        },
        {
          "indexed": true,
          "internalType": "address",
          "name": "winner",
          "type": "address"
        }
      ],
      "name": "Winner",
      "type": "event"
    },
    {
      "constant": true,
      "inputs": [
        {
          "internalType": "uint256",
          "name": "",
          "type": "uint256"
        }
      ],
      "name": "games",
      "outputs": [
        {
          "internalType": "address",
          "name": "player1",
          "type": "address"
        },
        {
          "internalType": "address",
          "name": "player2",
          "type": "address"
        },
        {
          "internalType": "enum Battleship.States",
          "name": "gameState",
          "type": "uint8"
        },
        {
          "internalType": "bool",
          "name": "is_private",
          "type": "bool"
        },
        {
          "internalType": "address",
          "name": "current_turn",
          "type": "address"
        },
        {
          "internalType": "uint8",
          "name": "winning_score",
          "type": "uint8"
        },
        {
          "internalType": "bool",
          "name": "waiting_result",
          "type": "bool"
        }
      ],
      "payable": false,
      "stateMutability": "view",
      "type": "function"
    },
    {
      "constant": true,
      "inputs": [],
      "name": "totalGames",
      "outputs": [
        {
          "internalType": "uint256",
          "name": "",
          "type": "uint256"
        }
      ],
      "payable": false,
      "stateMutability": "view",
      "type": "function"
    },
    {
      "constant": false,
      "inputs": [],
      "name": "createPrivateGame",
      "outputs": [],
      "payable": false,
      "stateMutability": "nonpayable",
      "type": "function"
    },
    {
      "constant": false,
      "inputs": [
        {
          "internalType": "uint256",
          "name": "gameId",
          "type": "uint256"
        }
      ],
      "name": "joinGame",
      "outputs": [],
      "payable": false,
      "stateMutability": "nonpayable",
      "type": "function"
    },
    {
      "constant": false,
      "inputs": [],
      "name": "joinRandomGame",
      "outputs": [],
      "payable": false,
      "stateMutability": "nonpayable",
      "type": "function"
    },
    {
      "constant": false,
      "inputs": [
        {
          "internalType": "uint256",
          "name": "gameId",
          "type": "uint256"
        },
        {
          "internalType": "bytes32",
          "name": "root",
          "type": "bytes32"
        }
      ],
      "name": "commitBoard",
      "outputs": [],
      "payable": false,
      "stateMutability": "nonpayable",
      "type": "function"
    },
    {
      "constant": true,
      "inputs": [
        {
          "internalType": "uint256",
          "name": "gameId",
          "type": "uint256"
        }
      ],
      "name": "currentTurn",
      "outputs": [
        {
          "internalType": "address",
          "name": "",
          "type": "address"
        }
      ],
      "payable": false,
      "stateMutability": "view",
      "type": "function"
    },
    {
      "constant": true,
      "inputs": [
        {
          "internalType": "uint256",
          "name": "gameId",
          "type": "uint256"
        }
      ],
      "name": "gameState",
      "outputs": [
        {
          "internalType": "uint8",
          "name": "",
          "type": "uint8"
        }
      ],
      "payable": false,
      "stateMutability": "view",
      "type": "function"
    },
    {
      "constant": false,
      "inputs": [
        {
          "internalType": "uint256",
          "name": "gameId",
          "type": "uint256"
        },
        {
          "internalType": "uint8",
          "name": "coordinate",
          "type": "uint8"
        }
      ],
      "name": "fire",
      "outputs": [],
      "payable": false,
      "stateMutability": "nonpayable",
      "type": "function"
    },
    {
      "constant": false,
      "inputs": [
        {
          "internalType": "uint256",
          "name": "gameId",
          "type": "uint256"
        },
        {
          "internalType": "uint8",
          "name": "coordinate",
          "type": "uint8"
        },
        {
          "internalType": "bool",
          "name": "result",
          "type": "bool"
        },
        {
          "internalType": "uint16",
          "name": "salt",
          "type": "uint16"
        },
        {
          "internalType": "bytes32[]",
          "name": "proof",
          "type": "bytes32[]"
        }
      ],
      "name": "shotResult",
      "outputs": [],
      "payable": false,
      "stateMutability": "nonpayable",
      "type": "function"
    }
  ],
  "bytecode": "0x608060405234801561001057600080fd5b50612337806100206000396000f3fe608060405234801561001057600080fd5b506004361061009e5760003560e01c80634e0e1a3e116100665780634e0e1a3e146102ef5780638f47e56a14610337578063aac033b914610341578063aae38ea814610379578063efaa55a0146103b45761009e565b8063117a5b90146100a357806318bc9ed6146101af57806328ee89101461021d5780632c4e591b146102c7578063342ca184146102e5575b600080fd5b6100cf600480360360208110156100b957600080fd5b81019080803590602001909291905050506103e2565b604051808873ffffffffffffffffffffffffffffffffffffffff1673ffffffffffffffffffffffffffffffffffffffff1681526020018773ffffffffffffffffffffffffffffffffffffffff1673ffffffffffffffffffffffffffffffffffffffff16815260200186600481111561014357fe5b60ff168152602001851515151581526020018473ffffffffffffffffffffffffffffffffffffffff1673ffffffffffffffffffffffffffffffffffffffff1681526020018360ff1660ff1681526020018215151515815260200197505050505050505060405180910390f35b6101db600480360360208110156101c557600080fd5b81019080803590602001909291905050506104b8565b604051808273ffffffffffffffffffffffffffffffffffffffff1673ffffffffffffffffffffffffffffffffffffffff16815260200191505060405180910390f35b6102c5600480360360a081101561023357600080fd5b8101908080359060200190929190803560ff169060200190929190803515159060200190929190803561ffff1690602001909291908035906020019064010000000081111561028157600080fd5b82018360208201111561029357600080fd5b803590602001918460208302840111640100000000831117156102b557600080fd5b909192939192939050505061056e565b005b6102cf610d40565b6040518082815260200191505060405180910390f35b6102ed610d46565b005b61031b6004803603602081101561030557600080fd5b8101908080359060200190929190505050610f37565b604051808260ff1660ff16815260200191505060405180910390f35b61033f6110e2565b005b6103776004803603604081101561035757600080fd5b8101908080359060200190929190803590602001909291905050506110ee565b005b6103b26004803603604081101561038f57600080fd5b8101908080359060200190929190803560ff169060200190929190505050611611565b005b6103e0600480360360208110156103ca57600080fd5b8101908080359060200190929190505050611bfc565b005b60006020528060005260406000206000915090508060000160009054906101000a900473ffffffffffffffffffffffffffffffffffffffff16908060010160009054906101000a900473ffffffffffffffffffffffffffffffffffffffff16908060010160149054906101000a900460ff16908060010160159054906101000a900460ff16908060030160009054906101000a900473ffffffffffffffffffffffffffffffffffffffff16908060050160009054906101000a900460ff16908060070160009054906101000a900460ff16905087565b60006001548210610531576040517f08c379a000000000000000000000000000000000000000000000000000000000815260040180806020018281038252600f8152602001807f496e76616c69642067616d65204944000000000000000000000000000000000081525060200191505060405180910390fd5b60008083815260200190815260200160002060030160009054906101000a900473ffffffffffffffffffffffffffffffffffffffff169050919050565b60015486106105e5576040517f08c379a000000000000000000000000000000000000000000000000000000000815260040180806020018281038252600f8152602001807f496e76616c69642067616d65204944000000000000000000000000000000000081525060200191505060405180910390fd5b600080600088815260200190815260200160002090503373ffffffffffffffffffffffffffffffffffffffff168160030160009054906101000a900473ffffffffffffffffffffffffffffffffffffffff1673ffffffffffffffffffffffffffffffffffffffff1614156106c1576040517f08c379a000000000000000000000000000000000000000000000000000000000815260040180806020018281038252600f8152602001807f4e6f7420706c61796572207475726e000000000000000000000000000000000081525060200191505060405180910390fd5b600360048111156106ce57fe5b8160010160149054906101000a900460ff1660048111156106eb57fe5b14610741576040517f08c379a00000000000000000000000000000000000000000000000000000000081526004018080602001828103825260288152602001806122db6028913960400191505060405180910390fd5b60008660ff1610158015610758575060648660ff16105b6107ca576040517f08c379a00000000000000000000000000000000000000000000000000000000081526004018080602001828103825260128152602001807f496e76616c696420636f6f7264696e617465000000000000000000000000000081525060200191505060405180910390fd5b3373ffffffffffffffffffffffffffffffffffffffff168160000160009054906101000a900473ffffffffffffffffffffffffffffffffffffffff1673ffffffffffffffffffffffffffffffffffffffff16148061087757503373ffffffffffffffffffffffffffffffffffffffff168160010160009054906101000a900473ffffffffffffffffffffffffffffffffffffffff1673ffffffffffffffffffffffffffffffffffffffff16145b6108cc576040517f08c379a00000000000000000000000000000000000000000000000000000000081526004018080602001828103825260288152602001806122096028913960400191505060405180910390fd5b8060070160009054906101000a900460ff16610950576040517f08c379a000000000000000000000000000000000000000000000000000000000815260040180806020018281038252601e8152602001807f43757272656e746c79206e6f742077616974696e67206120726573756c74000081525060200191505060405180910390fd5b60008160030160009054906101000a900473ffffffffffffffffffffffffffffffffffffffff1690508160060160008273ffffffffffffffffffffffffffffffffffffffff1673ffffffffffffffffffffffffffffffffffffffff16815260200190815260200160002060008860ff1660ff16815260200190815260200160002060000160019054906101000a900460ff1615610a38576040517f08c379a000000000000000000000000000000000000000000000000000000000815260040180806020018281038252602a815260200180612258602a913960400191505060405180910390fd5b610ac68260020160003373ffffffffffffffffffffffffffffffffffffffff1673ffffffffffffffffffffffffffffffffffffffff168152602001908152602001600020548787878780806020026020016040519081016040528093929190818152602001838360200280828437600081840152601f19601f82011690508083019250505050505050611ebe565b15610cd457858260060160008373ffffffffffffffffffffffffffffffffffffffff1673ffffffffffffffffffffffffffffffffffffffff16815260200190815260200160002060008960ff1660ff16815260200190815260200160002060000160006101000a81548160ff02191690831515021790555060018260060160008373ffffffffffffffffffffffffffffffffffffffff1673ffffffffffffffffffffffffffffffffffffffff16815260200190815260200160002060008960ff1660ff16815260200190815260200160002060000160016101000a81548160ff0219169083151502179055508515610c2a578160040160008273ffffffffffffffffffffffffffffffffffffffff1673ffffffffffffffffffffffffffffffffffffffff168152602001908152602001600020600081819054906101000a900460ff168092919060010191906101000a81548160ff021916908360ff160217905550505b338260030160006101000a81548173ffffffffffffffffffffffffffffffffffffffff021916908373ffffffffffffffffffffffffffffffffffffffff1602179055508660ff168173ffffffffffffffffffffffffffffffffffffffff16897f643d22060fdd6452e9d00cb46911d684f5f21a0792184e2980107b70f44e50c989604051808215151515815260200191505060405180910390a4610ccf888383611fb1565b610d19565b3373ffffffffffffffffffffffffffffffffffffffff16887f153b0f7771c671c1687a3dec3ae2d4fea7d83e189ac5562124ec923f559efe4760405160405180910390a35b60008260070160006101000a81548160ff0219169083151502179055505050505050505050565b60015481565b6000809050600080905060008090505b600154811015610e385760008060008381526020019081526020016000209050600073ffffffffffffffffffffffffffffffffffffffff168160010160009054906101000a900473ffffffffffffffffffffffffffffffffffffffff1673ffffffffffffffffffffffffffffffffffffffff16148015610dfd575060006004811115610dde57fe5b8160010160149054906101000a900460ff166004811115610dfb57fe5b145b8015610e1857508060010160159054906101000a900460ff16155b15610e2a576001925081935050610e38565b508080600101915050610d56565b508015610f285760008060008481526020019081526020016000209050338160010160006101000a81548173ffffffffffffffffffffffffffffffffffffffff021916908373ffffffffffffffffffffffffffffffffffffffff16021790555060018160010160146101000a81548160ff02191690836004811115610eb957fe5b0217905550827f87969bc7faf902221a147b95ceba76e011c5efb0339a0a8ee7a2bb82d9cfbbd633604051808273ffffffffffffffffffffffffffffffffffffffff1673ffffffffffffffffffffffffffffffffffffffff16815260200191505060405180910390a250610f33565b610f32600061208e565b5b5050565b60006001548210610fb0576040517f08c379a000000000000000000000000000000000000000000000000000000000815260040180806020018281038252600f8152602001807f496e76616c69642067616d65204944000000000000000000000000000000000081525060200191505060405180910390fd5b60006004811115610fbd57fe5b60008084815260200190815260200160002060010160149054906101000a900460ff166004811115610feb57fe5b1415610ffa57600090506110dd565b6001600481111561100757fe5b60008084815260200190815260200160002060010160149054906101000a900460ff16600481111561103557fe5b141561104457600190506110dd565b6002600481111561105157fe5b60008084815260200190815260200160002060010160149054906101000a900460ff16600481111561107f57fe5b141561108e57600290506110dd565b6003600481111561109b57fe5b60008084815260200190815260200160002060010160149054906101000a900460ff1660048111156110c957fe5b14156110d857600390506110dd565b600490505b919050565b6110ec600161208e565b565b6001548210611165576040517f08c379a000000000000000000000000000000000000000000000000000000000815260040180806020018281038252600f8152602001807f496e76616c69642067616d65204944000000000000000000000000000000000081525060200191505060405180910390fd5b60008060008481526020019081526020016000209050600073ffffffffffffffffffffffffffffffffffffffff168160000160009054906101000a900473ffffffffffffffffffffffffffffffffffffffff1673ffffffffffffffffffffffffffffffffffffffff161415611242576040517f08c379a00000000000000000000000000000000000000000000000000000000081526004018080602001828103825260138152602001807f47616d6520646f6573206e6f742065786973740000000000000000000000000081525060200191505060405180910390fd5b6002600481111561124f57fe5b8160010160149054906101000a900460ff16600481111561126c57fe5b148061129f57506001600481111561128057fe5b8160010160149054906101000a900460ff16600481111561129d57fe5b145b611311576040517f08c379a00000000000000000000000000000000000000000000000000000000081526004018080602001828103825260148152602001807f47616d6520616c7265616479207374617274656400000000000000000000000081525060200191505060405180910390fd5b3373ffffffffffffffffffffffffffffffffffffffff168160000160009054906101000a900473ffffffffffffffffffffffffffffffffffffffff1673ffffffffffffffffffffffffffffffffffffffff1614806113be57503373ffffffffffffffffffffffffffffffffffffffff168160010160009054906101000a900473ffffffffffffffffffffffffffffffffffffffff1673ffffffffffffffffffffffffffffffffffffffff16145b611413576040517f08c379a00000000000000000000000000000000000000000000000000000000081526004018080602001828103825260288152602001806122096028913960400191505060405180910390fd5b6000801b8160020160003373ffffffffffffffffffffffffffffffffffffffff1673ffffffffffffffffffffffffffffffffffffffff16815260200190815260200160002054146114af576040517f08c379a00000000000000000000000000000000000000000000000000000000081526004018080602001828103825260318152602001806122826031913960400191505060405180910390fd5b818160020160003373ffffffffffffffffffffffffffffffffffffffff1673ffffffffffffffffffffffffffffffffffffffff168152602001908152602001600020819055506001600481111561150257fe5b8160010160149054906101000a900460ff16600481111561151f57fe5b14156115505760028160010160146101000a81548160ff0219169083600481111561154657fe5b02179055506115a8565b6002600481111561155d57fe5b8160010160149054906101000a900460ff16600481111561157a57fe5b14156115a75760038160010160146101000a81548160ff021916908360048111156115a157fe5b02179055505b5b827f6ca87004dea1dbeec045b0dc2f98a5c0375f003f7948b77a694ebd6f22682a8033604051808273ffffffffffffffffffffffffffffffffffffffff1673ffffffffffffffffffffffffffffffffffffffff16815260200191505060405180910390a2505050565b6001548210611688576040517f08c379a000000000000000000000000000000000000000000000000000000000815260040180806020018281038252600f8152602001807f496e76616c69642067616d65204944000000000000000000000000000000000081525060200191505060405180910390fd5b600080600084815260200190815260200160002090503373ffffffffffffffffffffffffffffffffffffffff168160000160009054906101000a900473ffffffffffffffffffffffffffffffffffffffff1673ffffffffffffffffffffffffffffffffffffffff16148061174b57503373ffffffffffffffffffffffffffffffffffffffff168160010160009054906101000a900473ffffffffffffffffffffffffffffffffffffffff1673ffffffffffffffffffffffffffffffffffffffff16145b6117a0576040517f08c379a00000000000000000000000000000000000000000000000000000000081526004018080602001828103825260288152602001806122096028913960400191505060405180910390fd5b600360048111156117ad57fe5b8160010160149054906101000a900460ff1660048111156117ca57fe5b1461183d576040517f08c379a00000000000000000000000000000000000000000000000000000000081526004018080602001828103825260128152602001807f466972696e67206e6f7420616c6c6f776564000000000000000000000000000081525060200191505060405180910390fd5b3373ffffffffffffffffffffffffffffffffffffffff168160030160009054906101000a900473ffffffffffffffffffffffffffffffffffffffff1673ffffffffffffffffffffffffffffffffffffffff1614611902576040517f08c379a000000000000000000000000000000000000000000000000000000000815260040180806020018281038252601f8152602001807f506c61796572206d757374207761697420666f72207468656972207475726e0081525060200191505060405180910390fd5b60008260ff1610158015611919575060648260ff16105b61198b576040517f08c379a00000000000000000000000000000000000000000000000000000000081526004018080602001828103825260128152602001807f496e76616c696420636f6f7264696e617465000000000000000000000000000081525060200191505060405180910390fd5b8060070160009054906101000a900460ff16156119f3576040517f08c379a00000000000000000000000000000000000000000000000000000000081526004018080602001828103825260288152602001806122b36028913960400191505060405180910390fd5b8060060160003373ffffffffffffffffffffffffffffffffffffffff1673ffffffffffffffffffffffffffffffffffffffff16815260200190815260200160002060008360ff1660ff16815260200190815260200160002060000160019054906101000a900460ff1615611ab2576040517f08c379a00000000000000000000000000000000000000000000000000000000081526004018080602001828103825260278152602001806122316027913960400191505060405180910390fd5b60018160070160006101000a81548160ff02191690831515021790555060008160000160009054906101000a900473ffffffffffffffffffffffffffffffffffffffff1673ffffffffffffffffffffffffffffffffffffffff168260030160009054906101000a900473ffffffffffffffffffffffffffffffffffffffff1673ffffffffffffffffffffffffffffffffffffffff161415611b79578160010160009054906101000a900473ffffffffffffffffffffffffffffffffffffffff169050611ba1565b8160000160009054906101000a900473ffffffffffffffffffffffffffffffffffffffff1690505b8073ffffffffffffffffffffffffffffffffffffffff16847fae19dfa7e871b72e1c5e5a67d39988b7d0b642d25ef898f980d245ee2db2decc85604051808260ff1660ff16815260200191505060405180910390a350505050565b6001548110611c73576040517f08c379a000000000000000000000000000000000000000000000000000000000815260040180806020018281038252600f8152602001807f496e76616c69642067616d65204944000000000000000000000000000000000081525060200191505060405180910390fd5b60008060008381526020019081526020016000209050600073ffffffffffffffffffffffffffffffffffffffff168160000160009054906101000a900473ffffffffffffffffffffffffffffffffffffffff1673ffffffffffffffffffffffffffffffffffffffff161415611d50576040517f08c379a00000000000000000000000000000000000000000000000000000000081526004018080602001828103825260138152602001807f47616d6520646f6573206e6f742065786973740000000000000000000000000081525060200191505060405180910390fd5b60006004811115611d5d57fe5b8160010160149054906101000a900460ff166004811115611d7a57fe5b14611ded576040517f08c379a00000000000000000000000000000000000000000000000000000000081526004018080602001828103825260148152602001807f47616d6520616c7265616479207374617274656400000000000000000000000081525060200191505060405180910390fd5b338160010160006101000a81548173ffffffffffffffffffffffffffffffffffffffff021916908373ffffffffffffffffffffffffffffffffffffffff16021790555060018160010160146101000a81548160ff02191690836004811115611e5157fe5b0217905550817f87969bc7faf902221a147b95ceba76e011c5efb0339a0a8ee7a2bb82d9cfbbd633604051808273ffffffffffffffffffffffffffffffffffffffff1673ffffffffffffffffffffffffffffffffffffffff16815260200191505060405180910390a25050565b600080848460405160200180831515151581526020018261ffff1661ffff1681526020019250505060405160208183030381529060405280519060200120905060008090505b8351811015611fa2576000848281518110611f1b57fe5b60200260200101519050808311611f625782816040516020018083815260200182815260200192505050604051602081830303815290604052805190602001209250611f94565b808360405160200180838152602001828152602001925050506040516020818303038152906040528051906020012092505b508080600101915050611f04565b50858114915050949350505050565b8160050160009054906101000a900460ff1660ff168260040160008373ffffffffffffffffffffffffffffffffffffffff1673ffffffffffffffffffffffffffffffffffffffff16815260200190815260200160002060009054906101000a900460ff1660ff161415612089578073ffffffffffffffffffffffffffffffffffffffff16837f6b5936f5be80114e7a91daf84ba4886ece975aaffac48c9609cfa022d74a8a7d60405160405180910390a360048260010160146101000a81548160ff0219169083600481111561208357fe5b02179055505b505050565b60006001600081548092919060010191905055905060008060008381526020019081526020016000209050338160000160006101000a81548173ffffffffffffffffffffffffffffffffffffffff021916908373ffffffffffffffffffffffffffffffffffffffff16021790555060008160010160146101000a81548160ff0219169083600481111561211d57fe5b0217905550828160010160156101000a81548160ff021916908315150217905550338160030160006101000a81548173ffffffffffffffffffffffffffffffffffffffff021916908373ffffffffffffffffffffffffffffffffffffffff16021790555060118160050160006101000a81548160ff021916908360ff160217905550817fc3e0f84839dc888c892a013d10c8f9d6dc05a21a879d0ce468ca558013e9121c33604051808273ffffffffffffffffffffffffffffffffffffffff1673ffffffffffffffffffffffffffffffffffffffff16815260200191505060405180910390a250505056fe506c6179657220646f6573206e6f7420706172746963697061746520746f20746869732067616d65506c6179657220616c726561647920666972656420746f207468697320636f6f7264696e61746550726f6f6620666f72207468697320636f6f7264696e61746520616c72656164792070726f7669646564506c6179657220616c726561647920636f6d6d6974656420746865697220626f61726420666f7220746869732067616d6557616974696e6720666f722074686520726573756c74206f662070726576696f75732073686f74734f7065726174696f6e206e6f7420616c6c6f77656420696e20746869732067616d65207374617465a265627a7a723158205edc18f75fdf12456736ea516ed359e029cc6a1b4b6a9b937948214e958fb92964736f6c63430005100032",
  "source": "// SPDX-License-Identifier: MIT \r\npragma solidity >=0.5.0 <0.9.0;\r\n\r\ncontract Battleship {\r\n  enum States{\r\n    Waiting,\r\n    Connected,\r\n    Ready,\r\n    Play,\r\n    Over\r\n  }\r\n  \r\n  struct Shot{\r\n    bool result;\r\n    bool verified;\r\n  }\r\n\r\n  struct Game {\r\n    address player1;\r\n    address player2;\r\n    States gameState;\r\n    bool is_private;\r\n    mapping(address => bytes32) merkleRoots;\r\n    address current_turn;\r\n    mapping(address => uint8) scores;\r\n    uint8 winning_score;\r\n    mapping(address => mapping(uint8 => Shot)) shots;\r\n    bool waiting_result;\r\n  }\r\n\r\n  mapping(uint256 => Game) public games;\r\n  uint256 public totalGames;\r\n\r\n  event GameCreated(uint256 indexed gameId, address player1);\r\n  event PlayerJoined(uint256 indexed gameId, address player2);\r\n  event PlayerReady(uint256 indexed gameId, address player);\r\n  event Fire(uint256 indexed gameId, address indexed  victim, uint8 coordinate);\r\n  event ShotResult(uint256 indexed gameId, address indexed attacker, uint8 indexed coordinate, bool result);\r\n  event CheatingDetected(uint256 indexed gameId, address indexed cheater);\r\n  event Winner(uint256 indexed gameId, address indexed winner);\r\n\r\n  function createGame(bool priv) private{\r\n    uint256 gameId = totalGames++;\r\n    Game storage newGame = games[gameId];\r\n    newGame.player1 = msg.sender;\r\n    newGame.gameState = States.Waiting;\r\n    newGame.is_private = priv;\r\n    newGame.current_turn = msg.sender;\r\n    newGame.winning_score = 17;\r\n    emit GameCreated(gameId, msg.sender);\r\n  }\r\n\r\n  function createPrivateGame() external {\r\n    createGame(true);\r\n  }\r\n\r\n  function joinGame(uint256 gameId) external {\r\n    require(gameId < totalGames, \"Invalid game ID\");\r\n    Game storage existingGame = games[gameId];\r\n\r\n    require(existingGame.player1 != address(0), \"Game does not exist\");\r\n    require(existingGame.gameState == States.Waiting,\"Game already started\");\r\n\r\n    existingGame.player2 = msg.sender;\r\n    existingGame.gameState = States.Connected;\r\n    emit PlayerJoined(gameId, msg.sender);\r\n  }\r\n\r\n\r\n  function joinRandomGame() external {\r\n    uint256 gameId = 0;\r\n    bool gameFound = false;\r\n\r\n    for(uint256 i = 0; i < totalGames; i++) {\r\n      Game storage existingGame = games[i];\r\n      if (existingGame.player2 == address(0) && existingGame.gameState == States.Waiting && !existingGame.is_private) {\r\n        gameFound = true;\r\n        gameId = i;\r\n        break;\r\n      }\r\n    }\r\n\r\n    if (gameFound) {\r\n      Game storage existingGame = games[gameId];\r\n      existingGame.player2 = msg.sender;\r\n      existingGame.gameState = States.Connected;\r\n      emit PlayerJoined(gameId, msg.sender);\r\n    } else {\r\n        createGame(false);\r\n    }\r\n  }\r\n\r\n  function commitBoard(uint256 gameId, bytes32 root) external {\r\n    require(gameId < totalGames, \"Invalid game ID\");\r\n    Game storage game = games[gameId];\r\n\r\n    require(game.player1 != address(0), \"Game does not exist\");\r\n    require(game.gameState == States.Ready || game.gameState == States.Connected, \"Game already started\");\r\n    require(game.player1 == msg.sender || game.player2 == msg.sender, \"Player does not participate to this game\");\r\n    require(game.merkleRoots[msg.sender] == 0, \"Player already commited their board for this game\");\r\n\r\n    game.merkleRoots[msg.sender] = root;\r\n\r\n    //Waiting for the commit of the other player\r\n    if(game.gameState == States.Connected)\r\n      game.gameState = States.Ready;\r\n    //Other player already commited their board\r\n    else if(game.gameState == States.Ready)\r\n      game.gameState = States.Play;\r\n    \r\n    emit PlayerReady(gameId,msg.sender);\r\n  }\r\n\r\n  function currentTurn(uint256 gameId) public view returns (address){\r\n    require(gameId < totalGames, \"Invalid game ID\");\r\n    return games[gameId].current_turn;\r\n  }\r\n\r\n  function gameState(uint256 gameId) external view returns (uint8){\r\n    require(gameId < totalGames, \"Invalid game ID\");\r\n    if(games[gameId].gameState == States.Waiting)\r\n      return 0;\r\n    if(games[gameId].gameState == States.Connected)\r\n      return 1;\r\n    if(games[gameId].gameState == States.Ready)\r\n      return 2;\r\n    if(games[gameId].gameState == States.Play)\r\n      return 3;\r\n\r\n    return 4;\r\n  }\r\n\r\n  function fire(uint256 gameId, uint8 coordinate) external{\r\n    require(gameId < totalGames, \"Invalid game ID\");\r\n    Game storage game = games[gameId];\r\n    require(game.player1 == msg.sender || game.player2 == msg.sender, \"Player does not participate to this game\");\r\n    require(game.gameState == States.Play, \"Firing not allowed\");\r\n    require(game.current_turn == msg.sender,\"Player must wait for their turn\");\r\n    require(coordinate >= 0 && coordinate < 100, \"Invalid coordinate\");\r\n    require(!game.waiting_result, \"Waiting for the result of previous shots\");\r\n    require(!game.shots[msg.sender][coordinate].verified, \"Player already fired to this coordinate\");\r\n\r\n    game.waiting_result = true;\r\n    address victim;\r\n    if(game.current_turn == game.player1)\r\n      victim = game.player2;\r\n    else \r\n      victim = game.player1;\r\n    \r\n    emit Fire(gameId,victim,coordinate);\r\n  }\r\n\r\n  function shotResult(uint256 gameId, uint8 coordinate, bool result, uint16 salt, bytes32[] calldata proof) external {\r\n    require(gameId < totalGames, \"Invalid game ID\");\r\n    Game storage game = games[gameId];\r\n    require(game.current_turn != msg.sender, \"Not player turn\");\r\n    require(game.gameState == States.Play,\"Operation not allowed in this game state\");\r\n    require(coordinate >= 0 && coordinate < 100, \"Invalid coordinate\");\r\n    require(game.player1 == msg.sender || game.player2 == msg.sender, \"Player does not participate to this game\");\r\n    require(game.waiting_result, \"Currently not waiting a result\");\r\n\r\n    address attacker = game.current_turn;\r\n\r\n    require(!game.shots[attacker][coordinate].verified, \"Proof for this coordinate already provided\");\r\n\r\n    if(verify(game.merkleRoots[msg.sender], result, salt, proof)){\r\n      game.shots[attacker][coordinate].result = result;\r\n       game.shots[attacker][coordinate].verified = true;\r\n      if(result)\r\n        game.scores[attacker]++;\r\n        \r\n      game.current_turn = msg.sender;\r\n      emit ShotResult(gameId,attacker,coordinate,result);\r\n      checkForWin(gameId, game, attacker);\r\n    }\r\n    else{\r\n      emit CheatingDetected(gameId, msg.sender);\r\n    }\r\n    game.waiting_result = false;\r\n  }\r\n\r\nfunction verify(bytes32 root, bool result, uint16 salt, bytes32[] memory proof) private pure returns (bool){\r\n    \r\n    bytes32 computedHash = keccak256(abi.encode(result, salt));\r\n\r\n    for (uint256 i = 0; i < proof.length; i++) {\r\n      bytes32 proofElement = proof[i];\r\n\r\n      if (computedHash <= proofElement) {\r\n        // Hash(current computed hash + current element of the proof)\r\n        computedHash = keccak256(abi.encodePacked(computedHash, proofElement));\r\n      } else {\r\n        // Hash(current element of the proof + current computed hash)\r\n        computedHash = keccak256(abi.encodePacked(proofElement, computedHash));\r\n      }\r\n    }\r\n\r\n    // Check if the computed hash (root) is equal to the provided root\r\n    return computedHash == root;\r\n  }\r\n  \r\n  function checkForWin(uint256 gameId, Game storage game,address winner) private {\r\n    if(game.scores[winner] == game.winning_score){\r\n      emit Winner(gameId,winner);\r\n      game.gameState = States.Over;\r\n    }\r\n  }\r\n}\r\n",
  "sourcePath": "C:\\Users\\filip\\OneDrive\\Desktop\\Universit\\2 cybersecurity\\P2P and blockchain\\BattleShip\\contracts\\Battleship.sol",
  "compiler": {
    "name": "solc",
    "version": "0.5.16+commit.9c3226ce.Emscripten.clang"
  },
  "schemaVersion": "3.4.13",
  "updatedAt": "2023-08-11T19:14:04.880Z",
  "networkType": "ethereum",
  "devdoc": {
    "methods": {}
  },
  "userdoc": {
    "methods": {}
  }
}