{
  "contractName": "Battleship",
  "abi": [
    {
      "anonymous": false,
      "inputs": [
        {
          "indexed": true,
          "internalType": "uint256",
          "name": "gameId",
          "type": "uint256"
        },
        {
          "indexed": false,
          "internalType": "address",
          "name": "player",
          "type": "address"
        },
        {
          "indexed": true,
          "internalType": "uint8",
          "name": "coordinate",
          "type": "uint8"
        }
      ],
      "name": "Fire",
      "type": "event"
    },
    {
      "anonymous": false,
      "inputs": [
        {
          "indexed": true,
          "internalType": "uint256",
          "name": "gameId",
          "type": "uint256"
        },
        {
          "indexed": true,
          "internalType": "address",
          "name": "player1",
          "type": "address"
        }
      ],
      "name": "GameCreated",
      "type": "event"
    },
    {
      "anonymous": false,
      "inputs": [
        {
          "indexed": true,
          "internalType": "uint256",
          "name": "gameId",
          "type": "uint256"
        },
        {
          "indexed": true,
          "internalType": "address",
          "name": "player2",
          "type": "address"
        }
      ],
      "name": "PlayerJoined",
      "type": "event"
    },
    {
      "anonymous": false,
      "inputs": [
        {
          "indexed": true,
          "internalType": "uint256",
          "name": "gameId",
          "type": "uint256"
        },
        {
          "indexed": false,
          "internalType": "address",
          "name": "player",
          "type": "address"
        }
      ],
      "name": "PlayerReady",
      "type": "event"
    },
    {
      "constant": true,
      "inputs": [
        {
          "internalType": "uint256",
          "name": "",
          "type": "uint256"
        }
      ],
      "name": "games",
      "outputs": [
        {
          "internalType": "address",
          "name": "player1",
          "type": "address"
        },
        {
          "internalType": "address",
          "name": "player2",
          "type": "address"
        },
        {
          "internalType": "enum Battleship.States",
          "name": "gameState",
          "type": "uint8"
        },
        {
          "internalType": "bool",
          "name": "is_private",
          "type": "bool"
        },
        {
          "internalType": "address",
          "name": "current_turn",
          "type": "address"
        },
        {
          "internalType": "bool",
          "name": "waiting_result",
          "type": "bool"
        }
      ],
      "payable": false,
      "stateMutability": "view",
      "type": "function"
    },
    {
      "constant": true,
      "inputs": [],
      "name": "totalGames",
      "outputs": [
        {
          "internalType": "uint256",
          "name": "",
          "type": "uint256"
        }
      ],
      "payable": false,
      "stateMutability": "view",
      "type": "function"
    },
    {
      "constant": false,
      "inputs": [],
      "name": "createPrivateGame",
      "outputs": [],
      "payable": false,
      "stateMutability": "nonpayable",
      "type": "function"
    },
    {
      "constant": false,
      "inputs": [
        {
          "internalType": "uint256",
          "name": "gameId",
          "type": "uint256"
        }
      ],
      "name": "joinGame",
      "outputs": [],
      "payable": false,
      "stateMutability": "nonpayable",
      "type": "function"
    },
    {
      "constant": false,
      "inputs": [],
      "name": "joinRandomGame",
      "outputs": [],
      "payable": false,
      "stateMutability": "nonpayable",
      "type": "function"
    },
    {
      "constant": false,
      "inputs": [
        {
          "internalType": "uint256",
          "name": "gameId",
          "type": "uint256"
        },
        {
          "internalType": "bytes32",
          "name": "root",
          "type": "bytes32"
        }
      ],
      "name": "commitBoard",
      "outputs": [],
      "payable": false,
      "stateMutability": "nonpayable",
      "type": "function"
    },
    {
      "constant": true,
      "inputs": [
        {
          "internalType": "uint256",
          "name": "gameId",
          "type": "uint256"
        }
      ],
      "name": "currentTurn",
      "outputs": [
        {
          "internalType": "address",
          "name": "",
          "type": "address"
        }
      ],
      "payable": false,
      "stateMutability": "view",
      "type": "function"
    },
    {
      "constant": true,
      "inputs": [
        {
          "internalType": "uint256",
          "name": "gameId",
          "type": "uint256"
        }
      ],
      "name": "gameState",
      "outputs": [
        {
          "internalType": "uint8",
          "name": "",
          "type": "uint8"
        }
      ],
      "payable": false,
      "stateMutability": "view",
      "type": "function"
    },
    {
      "constant": false,
      "inputs": [
        {
          "internalType": "uint256",
          "name": "gameId",
          "type": "uint256"
        },
        {
          "internalType": "uint8",
          "name": "coordinate",
          "type": "uint8"
        }
      ],
      "name": "fire",
      "outputs": [],
      "payable": false,
      "stateMutability": "nonpayable",
      "type": "function"
    }
  ],
  "bytecode": "0x608060405234801561001057600080fd5b50611902806100206000396000f3fe608060405234801561001057600080fd5b50600436106100935760003560e01c80634e0e1a3e116100665780634e0e1a3e1461022d5780638f47e56a14610275578063aac033b91461027f578063aae38ea8146102b7578063efaa55a0146102f257610093565b8063117a5b901461009857806318bc9ed6146101975780632c4e591b14610205578063342ca18414610223575b600080fd5b6100c4600480360360208110156100ae57600080fd5b8101908080359060200190929190505050610320565b604051808773ffffffffffffffffffffffffffffffffffffffff1673ffffffffffffffffffffffffffffffffffffffff1681526020018673ffffffffffffffffffffffffffffffffffffffff1673ffffffffffffffffffffffffffffffffffffffff16815260200185600481111561013857fe5b60ff168152602001841515151581526020018373ffffffffffffffffffffffffffffffffffffffff1673ffffffffffffffffffffffffffffffffffffffff16815260200182151515158152602001965050505050505060405180910390f35b6101c3600480360360208110156101ad57600080fd5b81019080803590602001909291905050506103e3565b604051808273ffffffffffffffffffffffffffffffffffffffff1673ffffffffffffffffffffffffffffffffffffffff16815260200191505060405180910390f35b61020d610499565b6040518082815260200191505060405180910390f35b61022b61049f565b005b6102596004803603602081101561024357600080fd5b81019080803590602001909291905050506106f9565b604051808260ff1660ff16815260200191505060405180910390f35b61027d6108a4565b005b6102b56004803603604081101561029557600080fd5b8101908080359060200190929190803590602001909291905050506108b0565b005b6102f0600480360360408110156102cd57600080fd5b8101908080359060200190929190803560ff169060200190929190505050610dd3565b005b61031e6004803603602081101561030857600080fd5b8101908080359060200190929190505050611307565b005b60006020528060005260406000206000915090508060000160009054906101000a900473ffffffffffffffffffffffffffffffffffffffff16908060010160009054906101000a900473ffffffffffffffffffffffffffffffffffffffff16908060010160149054906101000a900460ff16908060010160159054906101000a900460ff16908060030160009054906101000a900473ffffffffffffffffffffffffffffffffffffffff16908060060160009054906101000a900460ff16905086565b6000600154821061045c576040517f08c379a000000000000000000000000000000000000000000000000000000000815260040180806020018281038252600f8152602001807f496e76616c69642067616d65204944000000000000000000000000000000000081525060200191505060405180910390fd5b60008083815260200190815260200160002060030160009054906101000a900473ffffffffffffffffffffffffffffffffffffffff169050919050565b60015481565b6000809050600080905060008090505b6001548110156105765760008060008381526020019081526020016000209050600073ffffffffffffffffffffffffffffffffffffffff168160010160009054906101000a900473ffffffffffffffffffffffffffffffffffffffff1673ffffffffffffffffffffffffffffffffffffffff1614801561055657506000600481111561053757fe5b8160010160149054906101000a900460ff16600481111561055457fe5b145b15610568576001925081935050610576565b5080806001019150506104af565b5080156106ea5760008060008481526020019081526020016000209050338160010160006101000a81548173ffffffffffffffffffffffffffffffffffffffff021916908373ffffffffffffffffffffffffffffffffffffffff16021790555060008160040160003373ffffffffffffffffffffffffffffffffffffffff1673ffffffffffffffffffffffffffffffffffffffff16815260200190815260200160002060006101000a81548160ff021916908360ff1602179055506000801b8160020160003373ffffffffffffffffffffffffffffffffffffffff1673ffffffffffffffffffffffffffffffffffffffff1681526020019081526020016000208190555060018160010160146101000a81548160ff0219169083600481111561069b57fe5b02179055503373ffffffffffffffffffffffffffffffffffffffff16837f87969bc7faf902221a147b95ceba76e011c5efb0339a0a8ee7a2bb82d9cfbbd660405160405180910390a3506106f5565b6106f4600061164d565b5b5050565b60006001548210610772576040517f08c379a000000000000000000000000000000000000000000000000000000000815260040180806020018281038252600f8152602001807f496e76616c69642067616d65204944000000000000000000000000000000000081525060200191505060405180910390fd5b6000600481111561077f57fe5b60008084815260200190815260200160002060010160149054906101000a900460ff1660048111156107ad57fe5b14156107bc576000905061089f565b600160048111156107c957fe5b60008084815260200190815260200160002060010160149054906101000a900460ff1660048111156107f757fe5b1415610806576001905061089f565b6002600481111561081357fe5b60008084815260200190815260200160002060010160149054906101000a900460ff16600481111561084157fe5b1415610850576002905061089f565b6003600481111561085d57fe5b60008084815260200190815260200160002060010160149054906101000a900460ff16600481111561088b57fe5b141561089a576003905061089f565b600490505b919050565b6108ae600161164d565b565b6001548210610927576040517f08c379a000000000000000000000000000000000000000000000000000000000815260040180806020018281038252600f8152602001807f496e76616c69642067616d65204944000000000000000000000000000000000081525060200191505060405180910390fd5b60008060008481526020019081526020016000209050600073ffffffffffffffffffffffffffffffffffffffff168160000160009054906101000a900473ffffffffffffffffffffffffffffffffffffffff1673ffffffffffffffffffffffffffffffffffffffff161415610a04576040517f08c379a00000000000000000000000000000000000000000000000000000000081526004018080602001828103825260138152602001807f47616d6520646f6573206e6f742065786973740000000000000000000000000081525060200191505060405180910390fd5b60026004811115610a1157fe5b8160010160149054906101000a900460ff166004811115610a2e57fe5b1480610a61575060016004811115610a4257fe5b8160010160149054906101000a900460ff166004811115610a5f57fe5b145b610ad3576040517f08c379a00000000000000000000000000000000000000000000000000000000081526004018080602001828103825260148152602001807f47616d6520616c7265616479207374617274656400000000000000000000000081525060200191505060405180910390fd5b3373ffffffffffffffffffffffffffffffffffffffff168160000160009054906101000a900473ffffffffffffffffffffffffffffffffffffffff1673ffffffffffffffffffffffffffffffffffffffff161480610b8057503373ffffffffffffffffffffffffffffffffffffffff168160010160009054906101000a900473ffffffffffffffffffffffffffffffffffffffff1673ffffffffffffffffffffffffffffffffffffffff16145b610bd5576040517f08c379a000000000000000000000000000000000000000000000000000000000815260040180806020018281038252602881526020018061184d6028913960400191505060405180910390fd5b6000801b8160020160003373ffffffffffffffffffffffffffffffffffffffff1673ffffffffffffffffffffffffffffffffffffffff1681526020019081526020016000205414610c71576040517f08c379a00000000000000000000000000000000000000000000000000000000081526004018080602001828103825260318152602001806118756031913960400191505060405180910390fd5b818160020160003373ffffffffffffffffffffffffffffffffffffffff1673ffffffffffffffffffffffffffffffffffffffff1681526020019081526020016000208190555060016004811115610cc457fe5b8160010160149054906101000a900460ff166004811115610ce157fe5b1415610d125760028160010160146101000a81548160ff02191690836004811115610d0857fe5b0217905550610d6a565b60026004811115610d1f57fe5b8160010160149054906101000a900460ff166004811115610d3c57fe5b1415610d695760038160010160146101000a81548160ff02191690836004811115610d6357fe5b02179055505b5b827f6ca87004dea1dbeec045b0dc2f98a5c0375f003f7948b77a694ebd6f22682a8033604051808273ffffffffffffffffffffffffffffffffffffffff1673ffffffffffffffffffffffffffffffffffffffff16815260200191505060405180910390a2505050565b6001548210610e4a576040517f08c379a000000000000000000000000000000000000000000000000000000000815260040180806020018281038252600f8152602001807f496e76616c69642067616d65204944000000000000000000000000000000000081525060200191505060405180910390fd5b600080600084815260200190815260200160002090503373ffffffffffffffffffffffffffffffffffffffff168160000160009054906101000a900473ffffffffffffffffffffffffffffffffffffffff1673ffffffffffffffffffffffffffffffffffffffff161480610f0d57503373ffffffffffffffffffffffffffffffffffffffff168160010160009054906101000a900473ffffffffffffffffffffffffffffffffffffffff1673ffffffffffffffffffffffffffffffffffffffff16145b610f62576040517f08c379a000000000000000000000000000000000000000000000000000000000815260040180806020018281038252602881526020018061184d6028913960400191505060405180910390fd5b60036004811115610f6f57fe5b8160010160149054906101000a900460ff166004811115610f8c57fe5b14610fff576040517f08c379a00000000000000000000000000000000000000000000000000000000081526004018080602001828103825260128152602001807f466972696e67206e6f7420616c6c6f776564000000000000000000000000000081525060200191505060405180910390fd5b3373ffffffffffffffffffffffffffffffffffffffff168160030160009054906101000a900473ffffffffffffffffffffffffffffffffffffffff1673ffffffffffffffffffffffffffffffffffffffff16146110c4576040517f08c379a000000000000000000000000000000000000000000000000000000000815260040180806020018281038252601f8152602001807f506c61796572206d757374207761697420666f72207468656972207475726e0081525060200191505060405180910390fd5b60008260ff16101580156110db575060648260ff16105b61114d576040517f08c379a00000000000000000000000000000000000000000000000000000000081526004018080602001828103825260128152602001807f496e76616c696420636f6f7264696e617465000000000000000000000000000081525060200191505060405180910390fd5b8060060160009054906101000a900460ff16156111b5576040517f08c379a00000000000000000000000000000000000000000000000000000000081526004018080602001828103825260288152602001806118a66028913960400191505060405180910390fd5b6111bd61182d565b82816000019060ff16908160ff16815250508160050160003373ffffffffffffffffffffffffffffffffffffffff1673ffffffffffffffffffffffffffffffffffffffff1681526020019081526020016000208190806001815401808255809150509060018203906000526020600020016000909192909190915060008201518160000160006101000a81548160ff021916908360ff16021790555060208201518160000160016101000a81548160ff02191690831515021790555050505060018260060160006101000a81548160ff0219169083151502179055508260ff16847fae19dfa7e871b72e1c5e5a67d39988b7d0b642d25ef898f980d245ee2db2decc33604051808273ffffffffffffffffffffffffffffffffffffffff1673ffffffffffffffffffffffffffffffffffffffff16815260200191505060405180910390a350505050565b600154811061137e576040517f08c379a000000000000000000000000000000000000000000000000000000000815260040180806020018281038252600f8152602001807f496e76616c69642067616d65204944000000000000000000000000000000000081525060200191505060405180910390fd5b60008060008381526020019081526020016000209050600073ffffffffffffffffffffffffffffffffffffffff168160000160009054906101000a900473ffffffffffffffffffffffffffffffffffffffff1673ffffffffffffffffffffffffffffffffffffffff16141561145b576040517f08c379a00000000000000000000000000000000000000000000000000000000081526004018080602001828103825260138152602001807f47616d6520646f6573206e6f742065786973740000000000000000000000000081525060200191505060405180910390fd5b6000600481111561146857fe5b8160010160149054906101000a900460ff16600481111561148557fe5b146114f8576040517f08c379a00000000000000000000000000000000000000000000000000000000081526004018080602001828103825260148152602001807f47616d6520616c7265616479207374617274656400000000000000000000000081525060200191505060405180910390fd5b338160010160006101000a81548173ffffffffffffffffffffffffffffffffffffffff021916908373ffffffffffffffffffffffffffffffffffffffff16021790555060018160010160146101000a81548160ff0219169083600481111561155c57fe5b02179055506000801b8160020160003373ffffffffffffffffffffffffffffffffffffffff1673ffffffffffffffffffffffffffffffffffffffff1681526020019081526020016000208190555060008160040160003373ffffffffffffffffffffffffffffffffffffffff1673ffffffffffffffffffffffffffffffffffffffff16815260200190815260200160002060006101000a81548160ff021916908360ff1602179055503373ffffffffffffffffffffffffffffffffffffffff16827f87969bc7faf902221a147b95ceba76e011c5efb0339a0a8ee7a2bb82d9cfbbd660405160405180910390a35050565b60006001600081548092919060010191905055905060008060008381526020019081526020016000209050338160000160006101000a81548173ffffffffffffffffffffffffffffffffffffffff021916908373ffffffffffffffffffffffffffffffffffffffff16021790555060008160010160146101000a81548160ff021916908360048111156116dc57fe5b0217905550828160010160156101000a81548160ff021916908315150217905550338160030160006101000a81548173ffffffffffffffffffffffffffffffffffffffff021916908373ffffffffffffffffffffffffffffffffffffffff16021790555060008160040160003373ffffffffffffffffffffffffffffffffffffffff1673ffffffffffffffffffffffffffffffffffffffff16815260200190815260200160002060006101000a81548160ff021916908360ff1602179055506000801b8160020160003373ffffffffffffffffffffffffffffffffffffffff1673ffffffffffffffffffffffffffffffffffffffff168152602001908152602001600020819055503373ffffffffffffffffffffffffffffffffffffffff16827fc3e0f84839dc888c892a013d10c8f9d6dc05a21a879d0ce468ca558013e9121c60405160405180910390a3505050565b6040518060400160405280600060ff168152602001600015158152509056fe506c6179657220646f6573206e6f7420706172746963697061746520746f20746869732067616d65506c6179657220616c726561647920636f6d6d6974656420746865697220626f61726420666f7220746869732067616d6557616974696e6720666f722074686520726573756c74206f662070726576696f75732073686f7473a265627a7a723158209209638266f379446381d7aba2971486e4a01e4f1f812ac9f74472f25aa3292f64736f6c63430005100032",
  "source": "// SPDX-License-Identifier: MIT \npragma solidity >=0.5.0 <0.9.0;\n\ncontract Battleship {\n  enum States{\n    Waiting,\n    Connected,\n    Ready,\n    Play,\n    Over\n  }\n\n  struct Shot {\n    uint8 coordinate;\n    bool result;\n  }\n\n  struct Game {\n    address player1;\n    address player2;\n    States gameState;\n    bool is_private;\n    mapping(address => bytes32) merkleRoots;\n    address current_turn;\n    mapping(address => uint8) scores;\n    mapping(address => Shot[]) shots;\n    bool waiting_result;\n  }\n\n  mapping(uint256 => Game) public games;\n  uint256 public totalGames;\n\n  event GameCreated(uint256 indexed gameId, address indexed player1);\n  event PlayerJoined(uint256 indexed gameId, address indexed player2);\n  event PlayerReady(uint256 indexed gameId, address player);\n  event Fire(uint256 indexed gameId, address player, uint8 indexed coordinate);\n\n  function createGame(bool priv) private{\n    uint256 gameId = totalGames++;\n    Game storage newGame = games[gameId];\n    newGame.player1 = msg.sender;\n    newGame.gameState = States.Waiting;\n    newGame.is_private = priv;\n    newGame.current_turn = msg.sender;\n    newGame.scores[msg.sender] = 0;\n    newGame.merkleRoots[msg.sender] = 0;\n    emit GameCreated(gameId, msg.sender);\n  }\n\n  function createPrivateGame() external {\n    createGame(true);\n  }\n\n  function joinGame(uint256 gameId) external {\n    require(gameId < totalGames, \"Invalid game ID\");\n    Game storage existingGame = games[gameId];\n\n    require(existingGame.player1 != address(0), \"Game does not exist\");\n    require(existingGame.gameState == States.Waiting,\"Game already started\");\n\n    existingGame.player2 = msg.sender;\n    existingGame.gameState = States.Connected;\n    existingGame.merkleRoots[msg.sender] = 0;\n    existingGame.scores[msg.sender] = 0;\n    emit PlayerJoined(gameId, msg.sender);\n  }\n\n\n  function joinRandomGame() external {\n    uint256 gameId = 0;\n    bool gameFound = false;\n\n    for(uint256 i = 0; i < totalGames; i++) {\n      Game storage existingGame = games[i];\n      if (existingGame.player2 == address(0) && existingGame.gameState == States.Waiting) {\n        gameFound = true;\n        gameId = i;\n        break;\n      }\n    }\n\n    if (gameFound) {\n      Game storage existingGame = games[gameId];\n      existingGame.player2 = msg.sender;\n      existingGame.scores[msg.sender] = 0;\n      existingGame.merkleRoots[msg.sender] = 0;\n      existingGame.gameState = States.Connected;\n      emit PlayerJoined(gameId, msg.sender);\n    } else {\n        createGame(false);\n    }\n  }\n\n  function verify(bytes32 root, bool result, bytes2 salt, bytes32[] memory proof) private pure returns (bool){\n    \n    bytes32 computedHash = keccak256(abi.encodePacked(result, salt));\n\n    for (uint256 i = 0; i < proof.length; i++) {\n      bytes32 proofElement = proof[i];\n\n      if (computedHash <= proofElement) {\n        // Hash(current computed hash + current element of the proof)\n        computedHash = keccak256(abi.encodePacked(computedHash, proofElement));\n      } else {\n        // Hash(current element of the proof + current computed hash)\n        computedHash = keccak256(abi.encodePacked(proofElement, computedHash));\n      }\n    }\n\n    // Check if the computed hash (root) is equal to the provided root\n    return computedHash == root;\n  }\n\n  function commitBoard(uint256 gameId, bytes32 root) external {\n    require(gameId < totalGames, \"Invalid game ID\");\n    Game storage game = games[gameId];\n\n    require(game.player1 != address(0), \"Game does not exist\");\n    require(game.gameState == States.Ready || game.gameState == States.Connected, \"Game already started\");\n    require(game.player1 == msg.sender || game.player2 == msg.sender, \"Player does not participate to this game\");\n    require(game.merkleRoots[msg.sender] == 0, \"Player already commited their board for this game\");\n\n    game.merkleRoots[msg.sender] = root;\n\n    //Waiting for the commit of the other player\n    if(game.gameState == States.Connected)\n      game.gameState = States.Ready;\n    //Other player already commited their board\n    else if(game.gameState == States.Ready)\n      game.gameState = States.Play;\n    \n    emit PlayerReady(gameId,msg.sender);\n  }\n\n  function currentTurn(uint256 gameId) public view returns (address){\n    require(gameId < totalGames, \"Invalid game ID\");\n    return games[gameId].current_turn;\n  }\n\n  function gameState(uint256 gameId) public view returns (uint8){\n    require(gameId < totalGames, \"Invalid game ID\");\n    if(games[gameId].gameState == States.Waiting)\n      return 0;\n    if(games[gameId].gameState == States.Connected)\n      return 1;\n    if(games[gameId].gameState == States.Ready)\n      return 2;\n    if(games[gameId].gameState == States.Play)\n      return 3;\n      \n    return 4;\n  }\n\n  function fire(uint256 gameId, uint8 coordinate) external{\n    require(gameId < totalGames, \"Invalid game ID\");\n    Game storage game = games[gameId];\n    require(game.player1 == msg.sender || game.player2 == msg.sender, \"Player does not participate to this game\");\n    require(game.gameState == States.Play, \"Firing not allowed\");\n    require(game.current_turn == msg.sender,\"Player must wait for their turn\");\n    require(coordinate >= 0 && coordinate < 100, \"Invalid coordinate\");\n    require(!game.waiting_result, \"Waiting for the result of previous shots\");\n\n    Shot memory missile;\n    missile.coordinate = coordinate;\n    game.shots[msg.sender].push(missile);\n    game.waiting_result = true;\n    \n    emit Fire(gameId,msg.sender,coordinate);\n  }\n}\n",
  "sourcePath": "C:\\Users\\filip\\OneDrive\\Desktop\\Università\\2° cybersecurity\\P2P and blockchain\\BattleShip\\contracts\\Battleship.sol",
  "compiler": {
    "name": "solc",
    "version": "0.5.16+commit.9c3226ce.Emscripten.clang"
  },
  "schemaVersion": "3.4.13",
  "updatedAt": "2023-08-08T23:26:25.057Z",
  "networkType": "ethereum",
  "devdoc": {
    "methods": {}
  },
  "userdoc": {
    "methods": {}
  }
}